:100000000C94E1000C9409010C9409010C94090171
:100010000C9409010C9409010C9409010C94090138
:100020000C9409010C9409010C9409010C94090128
:100030000C9409010C94A1080C9409010C94090179
:100040000C94330D0C9409010C94D1100C945411A0
:100050000C9409010C9409010C9409010C940901F8
:100060000C94840B0C94090100000000240027006C
:100070002A0000000000250028002B0000000000DE
:1000800023002600290004040404040404040202DA
:100090000202020203030303030301020408102007
:1000A0004080010204081020010204081020000012
:1000B0000007000201000003040600000000000029
:1000C000000000407A10F35A00A0724E1809001088
:1000D000A5D4E80000E87648170000E40B540200BD
:1000E00000CA9A3B000000E1F505000080969800E8
:1000F000000040420F000000A08601000000102711
:1001000000000000E80300000000640000000000A0
:100110000A00000000000100000000002C76D888D2
:10012000DC674F0823DFC1DFAE59E1B1B796E5E3E5
:10013000E453C63AE651997696E8E6C28426EB89FE
:100140008C9B62ED407C6FFCEFBC9C9F40F2BAA59B
:100150006FA5F490055A2AF75C936B6CF9676DC133
:100160001BFCE0E40D47FEF520E6B500D0ED902E37
:100170000300943577050080841E080000204E0A95
:10018000000000C80C333333330F986E12831141D3
:10019000EF8D2114893BE65516CFFEE6DB18D1849E
:1001A0004B381BF77C1D901DA4BBE42420328472C5
:1001B0005E228100C9F124ECA1E53D276603200AF7
:1001C000071111241FBECFEFD8E0DEBFCDBF13E073
:1001D000A0E0B1E0E0E7FBE202C005900D92AA309A
:1001E000B107D9F715E0AAE0B3E001C01D92AD3325
:1001F000B107E1F711E0C2ECD1E004C02297FE01A3
:100200000E947B15CC3BD107C9F70E947A110C9450
:10021000B6150C940000EF92FF920F931F93F22FEC
:10022000F02E47FD02C0E4E001C0E4E1242F3327B3
:1002300027FD309537FF03C0309521953F4F4F2D57
:10024000512F0F2FEE2E0E942C018F2D912F1F91D9
:100250000F91FF90EF900895A9E0B0E0E2E3F1E0A4
:100260000C9483156A01122FA02EBE2C2BE32017AD
:1002700018F42CE3922E02C0902E9394AE014F5F9F
:100280005F4F27E0092D0E948E02BC018981E82E74
:10029000FF24C70189709070019711F4ADE209C085
:1002A000B1FE02C0ABE205C0B0FC02C0A0E001C0DC
:1002B000A0E2E3FE3BC0AA2311F423E001C024E046
:1002C000211710F020E002C0121B212FEB2CB4FEEE
:1002D00002C0322F0AC0F601322F80E202C08193A1
:1002E00031503323E1F7C20ED11CAA2319F0F601D5
:1002F000A1936F01F6013196E2FE05C09EE4D6019E
:100300009C9381E404C09EE6D6019C9381E61196FD
:100310008C9391833296DF01832F90E202C09D93EC
:1003200081508823E1F7E30FF11D40C0E2FE42C097
:10033000AA2311F423E001C024E0211710F020E0EB
:1003400002C0121B212FEB2CB4FE02C0922F0AC058
:10035000F601922F80E202C0819391509923E1F738
:10036000C20ED11CAA2319F0F601A1936F01F60168
:100370003196E2FE08C089E4D6018C938EE4119692
:100380008C9386E407C089E6D6018C938EE611969D
:100390008C9386E681833296DF01892F20E202C0AA
:1003A0002D9381508823E1F7E90FF11D10822EEF84
:1003B0003FEFAFC0161617061CF041E050E003C037
:1003C000AB014F5F5F4FAA2019F480E090E003C0BB
:1003D0008A2D90E0019620E030E0AA2311F021E080
:1003E00030E0240F351F280F391F812F90E0281788
:1003F000390714F020E002C0121B212F4B2D50E0D2
:10040000CA0180719070B4FC0DC0B3FC0BC0F60142
:10041000322F40E202C0419331503323E1F7C20E44
:10042000D11C01C0322FAA2319F0F601A1936F014C
:10043000892B11F0132F0AC0F601132F80E302C09D
:10044000819311501123E1F7C30ED11C092D060F22
:10045000BA8090E1892E912C8E209F20E4FE04C06A
:10046000F1E3BF1609F40150101614F001E003C0C7
:10047000093008F008E09B0177FF02C020E030E07F
:10048000CB010196821B930BFE013196E80FF91FF9
:100490008EE2F82E3B01601A71088A2D90E0442705
:1004A0005527481B590B8FEF2F3F380719F4D601FA
:1004B000FD926D01621773072CF06216730614F437
:1004C000808101C080E321503040319624173507E8
:1004D00024F0D6018D936D01E6CF2617370749F436
:1004E000B5E3BB1528F0BB1621F48114910409F47F
:1004F00081E3F6018193D601812F90E202C09C93A3
:10050000815011968823D9F7E10FF11D108220E068
:1005100030E0C9012996EEE00C949F15283008F0D0
:1005200027E03327DA01990F311D87FD916000968E
:100530006105710539F432602E5F3D9330E32A95F1
:10054000E1F708959F3F30F080387105610509F0AB
:100550003C5F3C5F3D93913008F08068911DDF93D4
:10056000CF931F930F93FF92EF92192F987F969539
:10057000E92F96959695E90FFF27E45EFE4F9927A0
:100580003327EE24FF24A701E70105900894079480
:1005900028F4360FE71EF81E491F511D660F771FFE
:1005A000881F991F0694A1F70590079428F4E70E79
:1005B000F81E491F561FC11D770F881F991F661F00
:1005C0000694A1F70590079428F4F80E491F561FCA
:1005D000C71FD11D880F991F661F771F0694A1F7AB
:1005E0000590079420F4490F561FC71FD81F990F75
:1005F000661F771F881F0694A9F7849110951770BE
:1006000041F0D695C79557954795F794E7941A9575
:10061000C1F7E2ECF0E06894159015913591659181
:10062000959105907FE27395E118F10A430B560B03
:10063000C90BD009C0F7E10CF11E431F561FC91F9B
:10064000D01D7EF4703311F48A95E6CFE894015002
:1006500030F0080F0AF40027021708F4202F239522
:10066000022F7A3328F079E37D932A95E9F710C0B9
:100670007D932A9589F606949795679537951795F2
:100680001794E118F10A430B560BC90BD00998F0E7
:1006900023957E9173957A3308F070E37C93201351
:1006A000B8F77E9170617D9330F0839571E37D930F
:1006B00070E32A95E1F71124EF90FF900F911F91BD
:1006C000CF91DF91992787FD909508958F92AF92F2
:1006D000CF92EF920F9300D00F9283E0EDB7FEB769
:1006E0008183138212828AE093E067E242E021E094
:1006F00000E0E4E0EE2E75E0C72E56E0A52E37E0D0
:10070000832E0E9427080F900F900F908DE293E0A8
:1007100060E070E045E050E00E94D2098BE393E096
:1007200060E070E048E050E00E94D20989E493E084
:1007300060E070E046E050E00E94D20987E593E077
:1007400060E070E047E050E00E94D2090F91EF9026
:10075000CF90AF908F900895AF92BF92CF92DF92DB
:10076000EF92FF920F931F93CF93DF938091B90283
:100770000E94280EBC01843691051CF4C4E6D0E02A
:1007800007C0EC0182E06D3B780714F0CCEBD2E0BF
:1007900000D000D0BE01882777FD8095982F29E1F1
:1007A00030E040E050E0EDB7FEB721833283438371
:1007B00054832CEB32E040E050E0F4E6EF2EF12CD5
:1007C000012D112DEFEFAE2EB12CC12CD12C0E949A
:1007D000BD129B01AC010F900F900F900F90809174
:1007E000BD02B9010E944A0E8DE293E065E273E01A
:1007F0000E94C80880932303109224038BE393E0A4
:1008000067E273E00E94C8088093230310922403D8
:1008100089E493E069E273E00E94C80880932303AF
:100820001092240387E593E06BE273E00E94C8080E
:1008300080932303109224038091B3020E94280E18
:1008400000D000D0AA2797FDA095BA2F24E630E06B
:1008500040E050E0EDB7FEB72183328343835483F9
:10086000BC01CD0120E530E040E050E014E8E12E8D
:1008700013E0F12E012D112DAA24BB2465010E9445
:10088000BD120F900F900F900F90882777FD8095E5
:10089000982F0E94071420E030E040E251E40E94CB
:1008A0006C1342E021E005E613E00E940B01809109
:1008B000B5020E94280E909398038093970300D06E
:1008C00000D0AA2797FDA095BA2F26E930E040E096
:1008D00050E0EDB7FEB72183328343835483BC01DC
:1008E000CD0124E630E040E050E0B4E8EB2EB3E088
:1008F000FB2E012D112DACEEAA2EAFEFBA2EAFEFCD
:10090000CA2EAFEFDA2E0E94BD1270939803609347
:1009100097030F900F900F900F908091B7020E9455
:10092000280E90939A038093990300D000D0AA27B1
:1009300097FDA095BA2F23EF30E040E050E0EDB7EF
:10094000FEB72183328343835483BC01CD0120E071
:1009500030E040E050E0FFEFEF2EF3E0FF2E012DFE
:10096000112DAA24BB2465010E94BD1270939A0325
:10097000609399030F900F900F900F90882777FD49
:100980008095982F0E94071420E030E040E251E467
:100990000E946C1342E021E00BE913E00E940B017E
:1009A0008091BB020E943D0F9093CE038093CD03B4
:1009B000019781F58AE093E063E140E00E94B2068E
:1009C0008AE093E061E671E00E94A7128AE093E07A
:1009D00063E141E00E94B2068AE093E063E671E0E1
:1009E0000E94A7128AE093E063E142E00E94B2060F
:1009F0008AE093E065E671E00E94A7128AE093E046
:100A000063E143E00E94B2068AE093E067E671E0AA
:100A10000E94A7128091BF020E943D0F9093D003C5
:100A20008093CF0380EA94E069E671E00E94AA1205
:100A300080EA94E06EE971E00E94AA1280EA94E0F4
:100A40006BEB71E00E94AA1280EA94E062ED71E023
:100A50000E94AA1280EA94E069E671E00E94AA125C
:100A6000609125037091260380EA94E04AE050E00B
:100A70000E94941280EA94E067EE71E00E94AA124C
:100A8000609127037091280380EA94E04AE050E0E7
:100A90000E94941280EA94E06BEF71E00E94AA1227
:100AA0006091290370912A0380EA94E04AE050E0C3
:100AB0000E94941280EA94E06EE072E00E94AA1212
:100AC00060912B0370912C0380EA94E04AE050E09F
:100AD0000E94941280EA94E067E272E00E94AA12F7
:100AE000609197037091980380EA94E04AE050E0A7
:100AF0000E94941280EA94E060E472E00E94AA12DC
:100B000080EA94E065E673E00E94A71280EA94E030
:100B100061E572E00E94AA126091B9027091BA0276
:100B200080EA94E04AE050E00E94941280EA94E067
:100B30006FE572E00E94A71280EA94E0BE014AE0ED
:100B400050E00E94941280EA94E06FE572E00E9407
:100B5000A7126091BD027091BE0280EA94E04AE063
:100B600050E00E94941280EA94E06FE572E00E94E7
:100B7000A71280EA94E062E672E00E94AA1280EA7C
:100B800094E06BE973E00E94A71280EA94E06EE6BD
:100B900072E00E94AA12DF91CF911F910F91FF90F6
:100BA000EF90DF90CF90BF90AF900895EF92FF92BB
:100BB0000F931F938091BD0261E00E94AA0E80EA0C
:100BC00094E040E855E260E070E026E00E94C00F4B
:100BD0000AE013E0C80164E144E020E00E9410084C
:100BE0008091BB0260E00E94AA0E8091BF0260E08B
:100BF0000E94AA0E8091BD026FEF70E00E944A0E23
:100C0000C80160E040E00E94B206A4E7EA2EA2E03C
:100C1000FA2EC801B7010E94A712C80160E041E0A6
:100C20000E94B206C80169E872E00E94A712C801DA
:100C300060E042E00E94B206C8016EE972E00E94E4
:100C4000A712C80160E043E00E94B206C801B701E4
:100C50000E94A71268EE73E080E090E00E94C00D51
:100C60001F910F91FF90EF900895FC0112828FEF7A
:100C70008183108213820895FC018381882331F0DF
:100C8000662319F48FEF8183089511820895CF931D
:100C9000DF93EC018B81882319F480E090E013C08E
:100CA00089818095862388838DE194E06A810E9402
:100CB000E6098DE194E068810E94680A8DE194E084
:100CC0000E94AB0A90E020E030E0892B11F421E093
:100CD00030E0C901DF91CF910895CF93DF93EC010C
:100CE0006A838DE194E00E94C00A8DE194E06A81FC
:100CF00041E00E94BC0A1B82882311F081E08B83B3
:100D00008DE194E00E94F90988838B8190E0DF9166
:100D1000CF91089508950895FC011382128286EC04
:100D200092E0918380830895FC01A081B18118969F
:100D30002D913C9119976FEFF90109950895DC0108
:100D4000ED91FC910284F385E02D40E00995089532
:100D5000FC016581862F846085836C60CF010E94D1
:100D60009F060895DC0117969C911797491710F07C
:100D7000492F415018968C911897803139F494304E
:100D800029F4E42FF0E0EE52FD4F04C0E42FF0E030
:100D9000EA52FD4F8081680F6068CD010E949F0676
:100DA0000895DC01ED91FC910284F385E02D41E092
:100DB000099581E090E0089561E00E949F0680ED32
:100DC00097E00E947B0D0895CF93DF93EC014230B2
:100DD00018F08C8188608C834F836887222329F0E8
:100DE000413019F48C8184608C8364E670E080E08B
:100DF00090E00E94C00D6C8164FD31C0E881F981F2
:100E00000284F385E02DCE0163E042E0099584E998
:100E100091E10E947B0DE881F9810284F385E02D48
:100E2000CE0163E042E0099584E991E10E947B0DE7
:100E3000E881F9810284F385E02DCE0163E042E090
:100E4000099586E990E00E947B0DE881F981028492
:100E5000F385E02DCE0162E042E0099516C06062A4
:100E6000CE010E949F0684E991E10E947B0D6C8176
:100E70006062CE010E949F0686E990E00E947B0D91
:100E80006C816062CE010E949F066C816062CE011F
:100E90000E949F0684E08D83CE010E94A806CE01A9
:100EA0000E94DC0682E08E83CE0166E00E949F06EF
:100EB000CE010E949406DF91CF910895DC0181E07C
:100EC00090E002C0880F991F6A95E2F71C968C93F8
:100ED0001C971A965C934E931997ED91FC9111977C
:100EE0000084F185E02DCD0160E009950895DF9241
:100EF000EF92FF920F931F938C01D62E8EE0E82E77
:100F0000F12CE00EF11EF80162896D29C7010E94E3
:100F10004706F801628960956D21C7010E94470666
:100F20001F910F91FF90EF90DF900895DC01FC017D
:100F300020E090E070E060FF02C08589282B9F5F71
:100F40003196943019F075956795F4CF413019F4C6
:100F500054964C9154971D968C911D97842B282B59
:100F6000CD01622F0E94770708950F931F93CF93AF
:100F7000DF93EC01142F062F0F70423019F4602F0D
:100F800040E00CC070E044E0759567954A95E1F744
:100F9000412F0E949607CE01602F412F0E94960795
:100FA000DF91CF911F910F910895FC012485222399
:100FB00099F081859285009719F4662329F406C07B
:100FC000019721F4662311F4258701C01586CF010E
:100FD0000E9665850E94470608950F931F93CF9341
:100FE000DF938C01EC012E96CE01F80163850E94FF
:100FF0006D06019719F020E030E00CC0CE0161E0F1
:101000000E943C06F8011482CE0160E00E9447066F
:1010100021E030E0C901DF91CF911F910F91089538
:10102000DF92EF92FF920F931F938C01F62EE42E26
:10103000D22E0E94ED07C8016F2D4E2D2D2D0E943E
:10104000E4061F910F91FF90EF90DF9008952F928B
:101050003F924F925F926F927F928F929F92AF9248
:10106000BF92CF92DF92EF92FF920F931F93DF9385
:10107000CF93CDB7DEB73C01962E442E222E0E9490
:101080008C068EED92E0F30191838083C3010E966E
:101090000E943506F3019386148615861286118602
:1010A00081E090E09C0102C0220F331F4A94E2F7D6
:1010B000228BFC0102C0EE0FFF1F2A94E2F71F01F2
:1010C000F301238A9C0102C0220F331F0A95E2F725
:1010D000248BFC0102C0EE0FFF1FEA94E2F77F01B0
:1010E000F301E58A9C0102C0220F331FCA94E2F784
:1010F000268BFC0102C0EE0FFF1FAA94E2F75F01EE
:10110000F301A78A02C0880F991F8A94E2F7808FA3
:10111000C3016D894E895F890E945E07CF91DF917F
:101120001F910F91FF90EF90DF90CF90BF90AF9005
:101130009F908F907F906F905F904F903F902F90F7
:1011400008951F920F920FB60F9211242F933F9381
:101150004F935F936F937F938F939F93AF93BF93BF
:10116000EF93FF93E091D503F091D6030995FF919A
:10117000EF91BF91AF919F918F917F916F915F910F
:101180004F913F912F910F900FBE0F901F90189588
:10119000CF92DF92EF92FF920F931F93CF93DF9343
:1011A000EC016B01198618861B861A861D861C8623
:1011B000888161E00E94E90E8CE390E00E947B0D43
:1011C0008A810E943D0F892BD9F78A810E943D0FA9
:1011D000892BD9F31F8238E0E32EF12C01E010E0D7
:1011E00028C08A810E943D0F892BD9F78CE390E0BB
:1011F0000E947B0D8A810E943D0F892B91F08F8187
:101200009701281B3109C80102C0880F991F2A9530
:10121000E2F79C0188859985822B932B9987888793
:1012200005C08A810E943D0F892BD9F38F818F5F82
:101230008F838F818930A8F28A810E943D0F892B8C
:10124000D9F78A810E943D0F892BD9F31F8228E0AC
:10125000E22EF12C01E010E027C08A810E943D0FB0
:10126000892BD9F78CE390E00E947B0D8A810E9444
:101270003D0F892B89F08F819701281B3109F801D7
:1012800002C0EE0FFF1F2A95E2F78A859B858E2B01
:101290009F2B9B878A8705C08A810E943D0F892BDF
:1012A000D9F38F818F5F8F838F818930B0F28881EE
:1012B00060E00E94E90E1E821F8241E050E013C0F0
:1012C0009A0102C0220F331F8A95E2F7C9012885CF
:1012D000398582239323892B19F08E818F5F8E832A
:1012E0008F818F5F8F838F81893050F38E8180FD56
:1012F0004FC01E821F8241E050E013C0FA0102C0BD
:10130000EE0FFF1F8A95E2F7CF012A853B858223E6
:101310009323892B19F08E818F5F8E838F818F5F4E
:101320008F838F81893050F38E8180FD31C0488555
:10133000598556954795598748872A853B8536951F
:1013400027953B872A87742F60E0622B732B7D8360
:101350006C8380E090E00E94051420E030EE4FEFB7
:1013600054E40E946C1320E030E048E453E40E940F
:10137000931420E030E048E452E40E9407130E94F6
:10138000D4137D876C87F6017183608381E001C08F
:1013900080E0DF91CF911F910F91FF90EF90DF9050
:1013A000CF9008950F931F938C01862FF8016083CF
:1013B00071835383428361E00E94AA0EF801828107
:1013C00060E00E94AA0E1F910F91089581E0809322
:1013D0001C046093F90310921A0410921B040895E0
:1013E0002091F80330E08091F703281B3109C901EF
:1013F00008954091F7038091F803481718F02FEFF4
:101400003FEF0AC0E42FF0E0E952FC4F8081282F23
:1014100030E04F5F4093F703C9010895E091F7036F
:101420008091F803E81718F0EFEFFFEF06C0F0E047
:10143000E952FC4F8081E82FF0E0CF010895089534
:101440001092200410921F0488EE93E0A0E0B0E018
:101450008093210490932204A0932304B093240446
:101460008EEE92E090931E0480931D040895CF9217
:10147000DF92EF92FF920F931F93CF93DF937C0144
:101480006B018A0180911C048823A1F0C0E0D0E0A8
:101490000DC0D701ED91FC91D601AC0FBD1F01909D
:1014A000F081E02DC7016C9109952196C017D107F5
:1014B00080F304C0CB01642F0E94690BC801DF9147
:1014C000CF911F910F91FF90EF90DF90CF900895F3
:1014D000DF93CF930F92CDB7DEB7FC016983809184
:1014E0001C048823C9F080911B04803238F081E00D
:1014F00090E09383828320E030E015C080911A044D
:10150000E82FF0E0E650FC4F998190838F5F809345
:101510001A0480931B0405C0CE01019661E00E946D
:10152000690B21E030E0C9010F90CF91DF91089560
:101530000F93062F8091F9036AEF73E040911B042B
:1015400021E00E94140B10921A0410921B041092B6
:101550001C040F91089561E00E94980A0895413299
:1015600008F040E2862F67ED73E00E94CB0A1092EC
:10157000F7038093F803089521E00E94AF0A0895CD
:101580001092F7031092F80310921A0410921B04A1
:101590000E94150D0895382F413210F040E042C0EE
:1015A000809129048823E1F791E090932904209306
:1015B0002B048FEF80939604109251044150409376
:1015C00052044F5F90932A0480912A04330F832B97
:1015D00080932A0480912C04813041F410922C04D1
:1015E00080912A048093BB0085EC01C085EE809336
:1015F000BC00809129048130E1F38091510484176B
:1016000010F44091510420E030E00AC0FB01E20FE9
:10161000F31FD901AF5CBB4F8C9180832F5F3F4F8D
:101620002417A0F3842F08950F931F93582F122F80
:10163000413210F081E04AC0809129048823E1F70B
:1016400082E08093290400932B048FEF809396040B
:101650001092510440935204A1E3B4E0FB0102C094
:1016600081918D938E2F861B8417D0F310922A04BC
:1016700080912A04550F852B80932A0480912C0495
:10168000813041F410922C0480912A048093BB0095
:1016900085EC01C085EE8093BC00112321F0809180
:1016A00029048230E1F3809196048F3F11F480E0A9
:1016B0000DC080919604803211F482E007C08091C1
:1016C0009604803311F084E001C083E01F910F91F4
:1016D0000895482F613210F081E008958091290427
:1016E000843011F082E0089560937404A3E5B4E0BF
:1016F000842F9C01F90102C081918D938E2F841B50
:101700008617D0F380E008951F920F920FB60F92C4
:1017100011242F933F934F935F936F937F938F93F6
:101720009F93AF93BF93EF93FF938091B90090E0A5
:10173000887F90708036910509F4F2C0813691055A
:10174000CCF58832910509F47BC089329105B4F457
:101750008031910509F46FC0813191053CF4009707
:1017600009F447C1089709F04FC165C08831910558
:1017700009F466C0809709F047C182C080349105A2
:1017800009F4A4C08134910544F48033910509F42F
:1017900082C0C89709F038C189C08035910509F425
:1017A00089C08835910509F496C08834910509F0FF
:1017B0002BC1AEC08839910509F413C1893991054F
:1017C000ECF48837910509F4ABC0893791054CF4E6
:1017D0008836910509F4A4C08037910509F014C139
:1017E0009FC08838910509F4FCC08039910509F43F
:1017F0009DC08038910509F007C198C0803B9105D4
:1018000009F4C6C0813B91054CF4803A910509F476
:101810009FC0883A910509F0F7C0BAC0803C910595
:1018200009F4E3C0883C910509F4DFC0883B9105C9
:1018300009F0EAC0C2C080912A048093BB00CFC0E7
:101840009091510480915204981768F4909151043A
:10185000E92FF0E0EF5CFB4F80818093BB009F5F3E
:1018600090935104BCC080912B04882309F44BC091
:1018700085ED8093BC008091BC0084FDFCCFC2C08C
:1018800080E28093960485ED8093BC008091BC003B
:1018900084FDFCCFB7C080E38093960485ED8093F0
:1018A000BC008091BC0084FDFCCFACC088E3809379
:1018B00096049BC0809151049091BB00E82FF0E00A
:1018C000EF5CFB4F90838F5F8093510490915104A4
:1018D0008091520482C0809151049091BB00E82F06
:1018E000F0E0EF5CFB4F90838F5F80935104809119
:1018F0002B04882341F085ED8093BC008091BC00CF
:1019000084FDFCCF7FC081E080932C0484EA6EC00C
:1019100085ED8093BC008091BC0084FDFCCF72C03B
:1019200083E0809329041092950459C08091950416
:10193000803208F056C0809195049091BB00E82F4A
:10194000F0E0EB58FB4F90838F5F8093950447C086
:1019500080919504803230F4E0919504F0E0EB58EA
:10196000FB4F108285ED8093BC008091BC0084FD0C
:10197000FCCF1092290460919504E0912F04F0911E
:10198000300485E794E070E00995109295042DC02D
:1019900084E0809329041092730410927404E091FF
:1019A0002D04F0912E04099580917404882329F464
:1019B00081E0809374041092530490917304E92F92
:1019C000F0E0ED5AFB4F80818093BB009F5F9093C6
:1019D00073049091730480917404981710F485EC4B
:1019E00001C085E88093BC000FC085EC8093BC00EB
:1019F00009C01092960485ED8093BC008091BC00D4
:101A000084FDFCCF10922904FF91EF91BF91AF911B
:101A10009F918F917F916F915F914F913F912F9106
:101A20000F900FBE0F901F9018951092290481E01F
:101A300080932B0410922C0482E161E00E94E90E55
:101A400083E161E00E94E90EE9EBF0E080818E7FA6
:101A5000808380818D7F808388E48093B80085E4D3
:101A60008093BC0008951F920F920FB60F9211241D
:101A70002F933F938F939F93AF93BF9380919B043A
:101A800090919C04A0919D04B0919E0430919F047C
:101A90000196A11DB11D232F2D5F2D3720F02D574D
:101AA0000196A11DB11D20939F0480939B049093E8
:101AB0009C04A0939D04B0939E0480919704909100
:101AC0009804A0919904B0919A040196A11DB11DAA
:101AD0008093970490939804A0939904B0939A04E8
:101AE000BF91AF919F918F913F912F910F900FBE1A
:101AF0000F901F901895019739F0880F991F880F44
:101B0000991F02970197F1F70895789484B5826040
:101B100084BD84B5816084BD85B5826085BD85B591
:101B2000816085BDEEE6F0E0808181608083E1E840
:101B3000F0E0108280818260808380818160808378
:101B4000E0E8F0E0808181608083E1EBF0E080817B
:101B500084608083E0EBF0E0808181608083EAE74D
:101B6000F0E08081846080838081826080838081D6
:101B7000816080838081806880831092C100089595
:101B8000EF92FF920F931F93CF93DF937B018C0112
:101B90003FB7F8948091970490919804A09199048C
:101BA000B0919A0426B5A89B05C02F3F19F0019665
:101BB000A11DB11D3FBFBA2FA92F982F8827820FD3
:101BC000911DA11DB11D52E0880F991FAA1FBB1FB7
:101BD0005A95D1F7EC0130C00E9406133FB7F89434
:101BE0008091970490919804A0919904B0919A04DF
:101BF00026B5A89B05C02F3F19F00196A11DB11D68
:101C00003FBFBA2FA92F982F8827820F911DA11DA2
:101C1000B11D32E0880F991FAA1FBB1F3A95D1F75B
:101C20008C1B9D0B885E9340B8F20894E108F10884
:101C300001091109C851DC4FE114F1040105110536
:101C400059F6DF91CF911F910F91FF90EF9008957A
:101C5000982F8E3008F09E5097708091C102829527
:101C6000880F880F807C892B80937C0080917A007C
:101C7000806480937A0080917A0086FDFCCF209169
:101C8000780040917900942F80E030E0282B392BA8
:101C9000C90108951F93CF93DF93182FEB0161E0E3
:101CA0000E94AA0E209709F44AC0CF3FD10509F43B
:101CB00049C0E12FF0E0E255FF4F84918330C1F03D
:101CC000843028F4813051F08230B1F50CC0863078
:101CD00019F1873049F1843079F514C084B58068F2
:101CE00084BDC7BD33C084B5806284BDC8BD2EC06D
:101CF00080918000806880938000D0938900C09399
:101D0000880024C080918000806280938000D093FE
:101D10008B00C0938A001AC08091B00080688093C5
:101D2000B000C093B30012C08091B0008062809375
:101D3000B000C093B4000AC0C038D1051CF4812F94
:101D400060E002C0812F61E00E94E90EDF91CF9137
:101D50001F910895CF93DF93482F50E0CA01865614
:101D60009F4FFC0134914A575F4FFA0184918823B9
:101D700069F190E0880F991FFC01E859FF4FA59188
:101D8000B491FC01EE58FF4FC591D491662351F4F4
:101D90002FB7F8948C91932F909589238C938881F9
:101DA00089230BC0623061F42FB7F8948C91932F84
:101DB000909589238C938881832B88832FBF06C0BD
:101DC0009FB7F8948C91832B8C939FBFDF91CF9119
:101DD0000895482F50E0CA0182559F4FFC0124917D
:101DE000CA0186569F4FFC0194914A575F4FFA01F2
:101DF0003491332309F440C0222351F1233071F090
:101E0000243028F42130A1F0223011F514C02630FE
:101E1000B1F02730C1F02430D9F404C080918000A3
:101E20008F7703C0809180008F7D8093800010C0E9
:101E300084B58F7702C084B58F7D84BD09C0809141
:101E4000B0008F7703C08091B0008F7D8093B00089
:101E5000E32FF0E0EE0FFF1FEE58FF4FA591B49176
:101E60002FB7F894662321F48C919095892302C0B2
:101E70008C91892B8C932FBF0895682F70E0CB0134
:101E800082559F4FFC012491CB0186569F4FFC0148
:101E900044916A577F4FFB019491992319F420E0F4
:101EA00030E03CC0222351F1233071F0243028F47B
:101EB0002130A1F0223011F514C02630B1F02730C6
:101EC000C1F02430D9F404C0809180008F7703C022
:101ED000809180008F7D8093800010C084B58F77C3
:101EE00002C084B58F7D84BD09C08091B0008F771A
:101EF00003C08091B0008F7D8093B000892F90E067
:101F0000880F991F84589F4FFC01A591B4918C9123
:101F100020E030E0842311F021E030E0C901089591
:101F2000DC015C968C915C97FD01E80FF11DE35A92
:101F3000FF4F20815C968C915C9790E001968F73A7
:101F400090705C968C935C975696ED91FC915797A8
:101F500020835096ED91FC9151978081806480831D
:101F60005B969C915B975C968C915C97981739F483
:101F70005296ED91FC91539780818F7D80830895D7
:101F8000DF92EF92FF920F931F93CF93DF93EC01B9
:101F90007A018B01D22EE889F98982E08083403072
:101FA00081EE580780E0680780E07807A1F060E0E4
:101FB00079E08DE390E0A80197010E942815215057
:101FC000304040405040569547953795279580E1E1
:101FD0002030380798F0E889F989108260E874E8C1
:101FE0008EE190E0A80197010E9428152150304011
:101FF000404050405695479537952795EC85FD858F
:102000003083EE85FF852083188EEC89FD89D08290
:10201000EA89FB89808180618083EA89FB898081EC
:1020200088608083EA89FB89808180688083EA896F
:10203000FB8980818F7D8083DF91CF911F910F91EC
:10204000FF90EF90DF900895FC01818D228D90E04C
:10205000805C9F4F821B910960E470E00E9415151F
:102060000895FC01918D828D981719F42FEF3FEFA1
:1020700006C0828DE80FF11D858D282F30E0C90143
:102080000895DC0159969C9159975A968C915A97CC
:10209000981719F42FEF3FEF10C05A968C915A976A
:1020A000FD01E80FF11D958D5A968C915A978F5F1F
:1020B0008F735A968C93292F30E0C9010895CF93DE
:1020C000DF93EC01888D882361F419C08C9185FF22
:1020D0000AC0E889F989808185FF05C0CE010E9488
:1020E000900FAA89BB898C9185FD05C0E889F98983
:1020F000808186FD04C00FB607FEE8CFF4CFDF91E4
:10210000CF9108950F931F93CF93DF93EC01062F88
:102110009B8D8C8D981791F5E889F989808185FFD1
:102120002DC0EE89FF896083E889F9898081806408
:1021300080831DC00FB607FC08C0E889F98980813B
:1021400085FF03C0CE010E94900F8C8D181791F36C
:102150008B8DFE01E80FF11DE35AFF4F00831B8FAB
:10216000EA89FB8980818062808381E0888F81E0B9
:1021700090E0DF91CF911F910F9108951B8D1F5F0C
:102180001F73E3CF8AE491E1892B51F080E090E066
:10219000892B31F00E944A11882311F00E9400001F
:1021A00008951F920F920FB60F9211242F938F93C1
:1021B0009F93EF93FF93E091B004F091B10480817D
:1021C00082FD16C0E091B604F091B7042081909191
:1021D000B9049F5F9F738091BA04981771F0E091E2
:1021E000B904F0E0E056FB4F258F9093B90405C089
:1021F000E091B604F091B704E081FF91EF919F91D7
:102200008F912F910F900FBE0F901F9018951092E5
:10221000A3041092A20488EE93E0A0E0B0E08093C3
:10222000A4049093A504A093A604B093A7048EEFF2
:1022300092E09093A1048093A00485EC90E09093A9
:10224000AD048093AC0484EC90E09093AF04809351
:10225000AE0480EC90E09093B1048093B00481ECE4
:1022600090E09093B3048093B20482EC90E090935A
:10227000B5048093B40486EC90E09093B704809307
:10228000B6041092B9041092BA041092BB041092D2
:10229000BC04089580EA94E00E94241020E0892B79
:1022A00009F021E0822F08951F920F920FB60F922E
:1022B00011242F933F934F935F936F937F938F934B
:1022C0009F93AF93BF93EF93FF9380EA94E00E94B4
:1022D000900FFF91EF91BF91AF919F918F917F915F
:1022E0006F915F914F913F912F910F900FBE0F9083
:1022F0001F901895CF93DF930E94850D0E94D605FD
:10230000C2ECD0E10E94AC032097E1F30E94C2101E
:10231000F9CF0895CF92DF92EF92FF920F931F9320
:10232000CF93DF937C016B018A01C0E0D0E00FC046
:10233000D6016D916D01D701ED91FC910190F08175
:10234000E02DC7010995C80FD91F01501040011594
:10235000110571F7CE01DF91CF911F910F91FF9081
:10236000EF90DF90CF900895EF92FF920F931F931D
:102370008C01DC01ED91FC910190F081E02D6DE08C
:1023800009957C01D801ED91FC910190F081E02D3F
:10239000C8016AE009959C012E0D3F1DC9011F91DE
:1023A0000F91FF90EF900895CF93DF93EC016115AB
:1023B000710519F420E030E00FC0DB010D90002022
:1023C000E9F71197A61BB70BE881F9810280F38129
:1023D000E02DAD0109959C01C901DF91CF910895D0
:1023E0004F925F927F928F929F92AF92BF92CF92C5
:1023F000DF92EF92FF920F931F93DF93CF93CDB7AE
:10240000DEB7A1970FB6F894DEBF0FBECDBF2C018B
:10241000742ECB01223008F42AE019A231E2C32E37
:10242000D12CCC0EDD1E822E9924AA24BB24672D2C
:10243000752FA50194010E94281579018A01C80110
:10244000B701A50194010E94F614472D461B08947C
:10245000C108D1084A3014F4405D01C0495CF6015E
:102460004083E114F1040105110521F07E2C5F2D5C
:10247000C801DDCFC201B6010E94D411A1960FB6EA
:10248000F894DEBF0FBECDBFCF91DF911F910F91AA
:10249000FF90EF90DF90CF90BF90AF909F908F9084
:1024A0007F905F904F900895CF92DF92EF92FF92CE
:1024B0000F931F93CF93DF93EC016A017B012115EA
:1024C000310541F4E881F9810190F081E02D642F1C
:1024D00009951FC02A303105D1F477FF17C0E88174
:1024E000F9810190F081E02D6DE209958C0144277E
:1024F0005527BA014C195D096E097F09CE012AE002
:102500000E94F0119801280F391F04C02AE00E9490
:10251000F0119C01C901DF91CF911F910F91FF90A4
:10252000EF90DF90CF900895EF92FF920F931F935B
:102530007B019A010027F7FC0095102FB801A70135
:102540000E9454121F910F91FF90EF9008950E94E6
:10255000D4110895EF92FF920F931F937C010E9474
:10256000D4118C01C7010E94B411080F191FC801B2
:102570001F910F91FF90EF9008952F923F924F92ED
:102580005F926F927F928F929F92AF92BF92CF9203
:10259000DF92EF92FF920F931F93DF93CF93CDB70C
:1025A000DEB73B014C0119012A016D897E898F89B3
:1025B000988D6A197B098C099D09621A730A840A2D
:1025C000950AA40193010E94F614E218F308040985
:1025D0001509A80197010E944A152A0D3B1D4C1DA3
:1025E0005D1DB901CA01CF91DF911F910F91FF903D
:1025F000EF90DF90CF90BF90AF909F908F907F90A3
:102600006F905F904F903F902F900895089550588D
:10261000BB27AA270ED04DC13ED130F043D120F0C8
:1026200031F49F3F11F41EF433C10EF4E095E7FB43
:1026300029C1E92F4FD180F3BA17620773078407C6
:10264000950718F071F49EF567C10EF4E0950B2E16
:10265000BA2FA02D0B01B90190010C01CA01A001F4
:102660001124FF27591B99F0593F50F4503E68F14F
:102670001A16F040A22F232F342F4427585FF3CF90
:10268000469537952795A795F0405395C9F77EF461
:102690001F16BA0B620B730B840BBAF09150A1F0AA
:1026A000FF0FBB1F661F771F881FC2F70EC0BA0F30
:1026B000621F731F841F48F4879577956795B795B8
:1026C000F7959E3F08F0B3CF9395880F08F09927B0
:1026D000EE0F9795879508950CD0EBC0E3D040F0AE
:1026E000DAD030F021F45F3F19F0CCC0511115C1A0
:1026F000CFC0F0D098F39923C9F35523B1F3951BBC
:10270000550BBB27AA2762177307840738F09F5F12
:102710005F4F220F331F441FAA1FA9F333D00E2E81
:102720003AF0E0E830D091505040E695001CCAF7EE
:1027300029D0FE2F27D0660F771F881FBB1F2617B3
:1027400037074807AB07B0E809F0BB0B802DBF0186
:10275000FF2793585F4F2AF09E3F510568F092C0C3
:10276000DCC05F3FECF3983EDCF386957795679588
:10277000B795F7959F5FC9F7880F911D9695879537
:1027800097F90895E1E0660F771F881FBB1F621756
:1027900073078407BA0720F0621B730B840BBA0B14
:1027A000EE1F88F7E095089504D06894B111B5C084
:1027B000089598D088F09F5790F0B92F9927B75176
:1027C000A0F0D1F0660F771F881F991F1AF0BA95F5
:1027D000C9F712C0B13081F09FD0B1E008959CC01C
:1027E000672F782F8827B85F39F0B93FCCF38695EB
:1027F00077956795B395D9F73EF490958095709548
:1028000061957F4F8F4F9F4F0895E89409C097FBC4
:102810003EF490958095709561957F4F8F4F9F4FB7
:102820009923A9F0F92F96E9BB279395F6958795FB
:1028300077956795B795F111F8CFFAF4BB0F11F4BE
:1028400060FF1BC06F5F7F4F8F4F9F4F16C0882365
:1028500011F096E911C0772321F09EE8872F762F9B
:1028600005C0662371F096E8862F70E060E02AF0DC
:102870009A95660F771F881FDAF7880F96958795C8
:1028800097F9089597F99F6780E870E060E00895F0
:102890009FEF80EC089500240A9416161706180678
:1028A0000906089500240A94121613061406050654
:1028B0000895092E0394000C11F4882352F0BB0FE5
:1028C00040F4BF2B11F460FF04C06F5F7F4F8F4F48
:1028D0009F4F089557FD9058440F551F59F05F3F83
:1028E00071F04795880F97FB991F61F09F3F79F032
:1028F00087950895121613061406551FF2CF4695B4
:10290000F1DF08C0161617061806991FF1CF869535
:102910007105610508940895E894BB276627772719
:10292000CB0197F908950BD0C4CFB5DF28F0BADFFB
:1029300018F0952309F0A6CFABCF1124EECFCADF54
:10294000A0F3959FD1F3950F50E0551F629FF001C2
:10295000729FBB27F00DB11D639FAA27F00DB11D1B
:10296000AA1F649F6627B00DA11D661F829F2227A4
:10297000B00DA11D621F739FB00DA11D621F839F2B
:10298000A00D611D221F749F3327A00D611D231F01
:10299000849F600D211D822F762F6A2F11249F574F
:1029A00050408AF0E1F088234AF0EE0FFF1FBB1F72
:1029B000661F771F881F91505040A9F79E3F510511
:1029C00070F060CFAACF5F3FECF3983EDCF38695C2
:1029D00077956795B795F795E7959F5FC1F7FE2BBC
:1029E000880F911D9695879597F90895629FD0015C
:1029F000739FF001829FE00DF11D649FE00DF11DBA
:102A0000929FF00D839FF00D749FF00D659FF00D68
:102A10009927729FB00DE11DF91F639FB00DE11D55
:102A2000F91FBD01CF011124089597FB092E072638
:102A30000AD077FD04D049D006D000201AF4709552
:102A400061957F4F0895F6F7909581959F4F089572
:102A5000A1E21A2EAA1BBB1BFD010DC0AA1FBB1FA2
:102A6000EE1FFF1FA217B307E407F50720F0A21B14
:102A7000B30BE40BF50B661F771F881F991F1A9481
:102A800069F760957095809590959B01AC01BD01AB
:102A9000CF01089597FB092E05260ED057FD04D0CF
:102AA000D7DF0AD0001C38F4509540953095219519
:102AB0003F4F4F4F5F4F0895F6F790958095709573
:102AC00061957F4F8F4F9F4F0895AA1BBB1B51E10C
:102AD00007C0AA1FBB1FA617B70710F0A61BB70B8E
:102AE000881F991F5A95A9F780959095BC01CD0133
:102AF0000895EE0FFF1F0590F491E02D09942F9299
:102B00003F924F925F926F927F928F929F92AF927D
:102B1000BF92CF92DF92EF92FF920F931F93CF93CA
:102B2000DF93CDB7DEB7CA1BDB0B0FB6F894DEBF61
:102B30000FBECDBF09942A88398848885F846E8487
:102B40007D848C849B84AA84B984C884DF80EE80D1
:102B5000FD800C811B81AA81B981CE0FD11D0FB6DA
:102B6000F894DEBF0FBECDBFED010895F894FFCFFE
:102B7000432041757373656E74656D702E0043203C
:102B8000496E6E656E74656D702E0043204D6F74D6
:102B90006F727261756D004320416E736175676B72
:102BA0006C617070650042617220006C64727563C4
:102BB0006B004320006C74656D7065726174757292
:102BC000005620426F6172647370616E6E756E673D
:102BD0000056005400450043002D2D2D2D2D2D2D88
:102BE0002D2D2D2D2D2D2D2D2D2D2D2D2D2D2D2D15
:102BF0002D2D2D2D2D2D2D2D2D2D2D2D2D2D2D2D05
:102C00002D2D2D2D2D2D2D2D2D2D2D2D2D00486FC4
:102C10006E6475696E6F206275696C6420627920DC
:102C20005370697466697265585000486F6E6475B8
:102C3000696E6F40537069746669726558502E648E
:102C40006500486F6E6475696E6F205665727369B2
:102C50006F6E20312E32002043204175C39F656E78
:102C600074656D7065726174757200204320496EE1
:102C70006E656E74656D7065726174757200204367
:102C8000204BC3BC686C77617373657274656D703B
:102C900065726174757200204320416E73646175C2
:102CA000676C75667474656D7065726174757200B9
:102CB000204320C3966C74656D7065726174757283
:102CC000002042617220C3966C647275636B003B96
:102CD00020002048656C6C69676B6569740020563C
:102CE0006F6C7400232323232323232323232323F1
:102CF0002323232323232323002320203C3C3C4362
:102D000061726475696E6F3E3E3E20202300232071
:102D1000202020202056657273696F6E20312E337B
:102D20002023000E000F00100011000C000B000308
:102D3000000100000000D1068A11E4068A068B0615
:102D40008911004010500040145400000000D106CA
:102D50008A1110085E07D507B50700000000680A51
:102D6000370AF009F9090E0A1F0A00000000821054
:0A2D70008A112410411031105F1089
:00000001FF
