:100000000C94E1000C94770F0C94A40F0C9409014C
:100010000C9409010C9409010C9409010C94090138
:100020000C9409010C9409010C9409010C94090128
:100030000C9409010C94260C0C9409010C940901F0
:100040000C94D10F0C9409010C946F130C94F213BF
:100050000C9409010C9409010C9409010C940901F8
:100060000C94770A0C94090100000000240027007A
:100070002A0000000000250028002B0000000000DE
:1000800023002600290004040404040404040202DA
:100090000202020203030303030301020408102007
:1000A0004080010204081020010204081020000012
:1000B0000007000201000003040600000000000029
:1000C000000000407A10F35A00A0724E1809001088
:1000D000A5D4E80000E87648170000E40B540200BD
:1000E00000CA9A3B000000E1F505000080969800E8
:1000F000000040420F000000A08601000000102711
:1001000000000000E80300000000640000000000A0
:100110000A00000000000100000000002C76D888D2
:10012000DC674F0823DFC1DFAE59E1B1B796E5E3E5
:10013000E453C63AE651997696E8E6C28426EB89FE
:100140008C9B62ED407C6FFCEFBC9C9F40F2BAA59B
:100150006FA5F490055A2AF75C936B6CF9676DC133
:100160001BFCE0E40D47FEF520E6B500D0ED902E37
:100170000300943577050080841E080000204E0A95
:10018000000000C80C333333330F986E12831141D3
:10019000EF8D2114893BE65516CFFEE6DB18D1849E
:1001A0004B381BF77C1D901DA4BBE42420328472C5
:1001B0005E228100C9F124ECA1E53D277E031309ED
:1001C000A51311241FBECFEFD8E0DEBFCDBF13E0D3
:1001D000A0E0B1E0ECEAF0E302C005900D92AE358C
:1001E000B107D9F715E0AEE5B3E001C01D92A5391E
:1001F000B107E1F711E0C2ECD1E004C02297FE01A3
:100200000E941918CC3BD107C9F70E9418140C940E
:1002100054180C940000EF92FF920F931F93F22F4B
:10022000F02E47FD02C0E4E001C0E4E1242F3327B3
:1002300027FD309537FF03C0309521953F4F4F2D57
:10024000512F0F2FEE2E0E942C018F2D912F1F91D9
:100250000F91FF90EF900895A9E0B0E0E2E3F1E0A4
:100260000C9421186A01122FA02EBE2C2BE320170C
:1002700018F42CE3922E02C0902E9394AE014F5F9F
:100280005F4F27E0092D0E948E02BC018981E82E74
:10029000FF24C70189709070019711F4ADE209C085
:1002A000B1FE02C0ABE205C0B0FC02C0A0E001C0DC
:1002B000A0E2E3FE3BC0AA2311F423E001C024E046
:1002C000211710F020E002C0121B212FEB2CB4FEEE
:1002D00002C0322F0AC0F601322F80E202C08193A1
:1002E00031503323E1F7C20ED11CAA2319F0F601D5
:1002F000A1936F01F6013196E2FE05C09EE4D6019E
:100300009C9381E404C09EE6D6019C9381E61196FD
:100310008C9391833296DF01832F90E202C09D93EC
:1003200081508823E1F7E30FF11D40C0E2FE42C097
:10033000AA2311F423E001C024E0211710F020E0EB
:1003400002C0121B212FEB2CB4FE02C0922F0AC058
:10035000F601922F80E202C0819391509923E1F738
:10036000C20ED11CAA2319F0F601A1936F01F60168
:100370003196E2FE08C089E4D6018C938EE4119692
:100380008C9386E407C089E6D6018C938EE611969D
:100390008C9386E681833296DF01892F20E202C0AA
:1003A0002D9381508823E1F7E90FF11D10822EEF84
:1003B0003FEFAFC0161617061CF041E050E003C037
:1003C000AB014F5F5F4FAA2019F480E090E003C0BB
:1003D0008A2D90E0019620E030E0AA2311F021E080
:1003E00030E0240F351F280F391F812F90E0281788
:1003F000390714F020E002C0121B212F4B2D50E0D2
:10040000CA0180719070B4FC0DC0B3FC0BC0F60142
:10041000322F40E202C0419331503323E1F7C20E44
:10042000D11C01C0322FAA2319F0F601A1936F014C
:10043000892B11F0132F0AC0F601132F80E302C09D
:10044000819311501123E1F7C30ED11C092D060F22
:10045000BA8090E1892E912C8E209F20E4FE04C06A
:10046000F1E3BF1609F40150101614F001E003C0C7
:10047000093008F008E09B0177FF02C020E030E07F
:10048000CB010196821B930BFE013196E80FF91FF9
:100490008EE2F82E3B01601A71088A2D90E0442705
:1004A0005527481B590B8FEF2F3F380719F4D601FA
:1004B000FD926D01621773072CF06216730614F437
:1004C000808101C080E321503040319624173507E8
:1004D00024F0D6018D936D01E6CF2617370749F436
:1004E000B5E3BB1528F0BB1621F48114910409F47F
:1004F00081E3F6018193D601812F90E202C09C93A3
:10050000815011968823D9F7E10FF11D108220E068
:1005100030E0C9012996EEE00C943D18283008F02F
:1005200027E03327DA01990F311D87FD916000968E
:100530006105710539F432602E5F3D9330E32A95F1
:10054000E1F708959F3F30F080387105610509F0AB
:100550003C5F3C5F3D93913008F08068911DDF93D4
:10056000CF931F930F93FF92EF92192F987F969539
:10057000E92F96959695E90FFF27E45EFE4F9927A0
:100580003327EE24FF24A701E70105900894079480
:1005900028F4360FE71EF81E491F511D660F771FFE
:1005A000881F991F0694A1F70590079428F4E70E79
:1005B000F81E491F561FC11D770F881F991F661F00
:1005C0000694A1F70590079428F4F80E491F561FCA
:1005D000C71FD11D880F991F661F771F0694A1F7AB
:1005E0000590079420F4490F561FC71FD81F990F75
:1005F000661F771F881F0694A9F7849110951770BE
:1006000041F0D695C79557954795F794E7941A9575
:10061000C1F7E2ECF0E06894159015913591659181
:10062000959105907FE27395E118F10A430B560B03
:10063000C90BD009C0F7E10CF11E431F561FC91F9B
:10064000D01D7EF4703311F48A95E6CFE894015002
:1006500030F0080F0AF40027021708F4202F239522
:10066000022F7A3328F079E37D932A95E9F710C0B9
:100670007D932A9589F606949795679537951795F2
:100680001794E118F10A430B560BC90BD00998F0E7
:1006900023957E9173957A3308F070E37C93201351
:1006A000B8F77E9170617D9330F0839571E37D930F
:1006B00070E32A95E1F71124EF90FF900F911F91BD
:1006C000CF91DF91992787FD9095089521E030E043
:1006D0003093130320931203809110039091110320
:1006E0008430910534F401969093110380931003A4
:1006F0000895309311032093100308958F92AF92C1
:10070000CF92EF920F9300D00F9283E0EDB7FEB738
:100710008183138212828EE593E067E242E021E05A
:1007200000E0E4E0EE2E75E0C72E56E0A52E37E09F
:10073000832E0E94DA0E0F900F900F9081E893E0C5
:1007400060E070E045E050E00E94C5088FE893E06B
:1007500060E070E048E050E00E94C5088DE993E059
:1007600060E070E046E050E00E94C5088BEA93E04C
:1007700060E070E047E050E00E94C5080F91EF9004
:10078000CF90AF908F9008951F9380912304909104
:100790002404892B81F480912104909122040197F3
:1007A00051F410910603812F0E94DB1161E068274C
:1007B000812F0E9487111F9108958EE593E060E0DC
:1007C00040E00E94650D8EE593E06FEE73E00E94BD
:1007D00045158EE593E060E071E00E9445158EE5D9
:1007E00093E060E042E00E94650D809123049091C7
:1007F0002404019731F48EE593E060E171E00E94FA
:1008000045158091210490912204019729F48EE5E9
:1008100093E062E271E004C08EE593E06CE271E087
:100820000E94451508950F931F930EE513E0C8012C
:1008300060E041E00E94650DC8016AE371E00E943A
:100840004515C80162E042E00E94650D60917D039C
:1008500070917E03C8014AE050E00E943215C80141
:100860006BE371E00E944515C80162E043E00E941D
:10087000650D60917F0370918003C8014AE050E0EC
:100880000E943215C80167E471E00E9445151F916E
:100890000F910895EF92FF920F931F930EE513E0CF
:1008A000C80162E040E00E94650DC80166E571E0A4
:1008B0000E944515C80163E041E00E94650D60910A
:1008C000790370917A03C8014AE050E00E94321522
:1008D000F7E6EF2EF1E0FF2EC801B7010E944515A3
:1008E000C80162E042E00E94650DC80160E771E066
:1008F0000E944515C80163E043E00E94650D6091C8
:100900007B0370917C03C8014AE050E00E943215DD
:10091000C801B7010E9445151F910F91FF90EF90FC
:1009200008950F931F930EE513E0C80162E040E0C5
:100930000E94650DC8016FEE0E94840DC80160E839
:1009400071E00E944515C80165E041E00E94650D17
:10095000C80169EB73E00E944515C80167E871E0C2
:100960000E944515C80162E042E00E94650DC80181
:100970006FEE0E94840DC8016CE871E00E9445157D
:10098000C80165E043E00E94650D6091EB03709142
:10099000EC03C8014AE050E00E943215C80168E942
:1009A00071E00E9445151F910F9108958F929F92BB
:1009B000AF92BF92CF92DF92EF92FF920F931F936D
:1009C000CF93DF93809104030E94C610BC0184364C
:1009D00091051CF4C4E6D0E007C0EC0182E06D3B59
:1009E000780714F0CCEBD2E000D000D0BE0188270D
:1009F00077FD8095982F2EE130E040E050E0EDB794
:100A0000FEB721833283438354832CEB32E040E0F2
:100A100050E0F4E6EF2EF12C012D112DEFEFAE2E6C
:100A2000B12CC12CD12C0E945B159B01AC014B0158
:100A30000F900F900F900F9080910C03B9010E94BE
:100A4000E8108091120390911303019741F48EE511
:100A500093E00E948F0D1092130310921203809165
:100A60001003909111038230910579F08330910544
:100A70001CF4019791F406C08330910549F0049766
:100A800061F409C00E94910408C00E944A0405C094
:100A90000E94DD0302C00E94130481E893E069E72D
:100AA00073E00E94BB0780937703109278038FE86E
:100AB00093E06BE773E00E94BB078093770310928B
:100AC00078038DE993E06DE773E00E94BB078093A4
:100AD0007703109278038BEA93E06FE773E00E944C
:100AE000BB0780937703109278038091FE020E94E7
:100AF000C61000D000D0AA2797FDA095BA2F24E6F3
:100B000030E040E050E0EDB7FEB72183328343830D
:100B10005483BC01CD0120E530E040E050E004E822
:100B2000E02E03E0F02E012D112DAA24BB24650137
:100B30000E945B150F900F900F900F90882777FD04
:100B40008095982F0E94A51620E030E040E251E405
:100B50000E940A1642E021E009EB13E00E940B011B
:100B6000809100030E94C6109093EC038093EB03E6
:100B700000D000D0AA2797FDA095BA2F26E930E033
:100B800040E050E0EDB7FEB72183328343835483C6
:100B9000BC01CD0124E630E040E050E014E8E12E55
:100BA00013E0F12E012D112DBCEEAB2EBFEFBB2EAD
:100BB000BFEFCB2EBFEFDB2E0E945B157093EC03D3
:100BC0006093EB030F900F900F900F9080910203B2
:100BD0000E94C6109093EE038093ED0300D000D0E6
:100BE000AA2797FDA095BA2F2CED30E040E050E009
:100BF000EDB7FEB72183328343835483BC01CD011B
:100C000020E030E040E050E0AFEFEA2EA3E0FA2E23
:100C1000012D112DAA24BB2465010E945B15709340
:100C2000EE036093ED030F900F900F900F908827C5
:100C300077FD8095982F0E94A51620E030E040E2D5
:100C400051E40E940A1642E021E00FEE13E00E94F8
:100C50000B01809108030E94DB1190932204809382
:100C6000210480910A030E94DB1190932404809355
:100C70002304019751F48091210490912204892B3F
:100C800021F48091060361E003C08091060360E0D7
:100C90000E94871188EF94E06BE971E00E9448158B
:100CA00088EF94E060ED71E00E94481588EF94E0D1
:100CB0006DEE71E00E94481588EF94E064E072E008
:100CC0000E94481588EF94E06BE971E00E94481596
:100CD0006091790370917A0388EF94E04AE050E0E4
:100CE0000E94321588EF94E069E172E00E94481595
:100CF00060917B0370917C0388EF94E04AE050E0C0
:100D00000E94321588EF94E06DE272E00E9448156F
:100D100060917D0370917E0388EF94E04AE050E09B
:100D20000E94321588EF94E060E472E00E9448155A
:100D300060917F037091800388EF94E04AE050E077
:100D40000E94321588EF94E069E572E00E94481530
:100D50006091EB037091EC0388EF94E04AE050E07F
:100D60000E94321588EF94E062E772E00E94481515
:100D700088EF94E069EB73E00E94451588EF94E0FA
:100D800063E872E00E94481560910A0370910B03BA
:100D900088EF94E04AE050E00E94321588EF94E03A
:100DA00061E972E00E94481560910803709109039F
:100DB00088EF94E04AE050E00E94321588EF94E01A
:100DC00064EA72E00E944815609104037091050383
:100DD00088EF94E04AE050E00E94321588EF94E0FA
:100DE0006AEA72E00E94451588EF94E0BE014AE08D
:100DF00050E00E94321588EF94E06AEA72E00E94A7
:100E0000451588EF94E0B4014AE050E00E943215A5
:100E100088EF94E06AEA72E00E94451588EF94E05A
:100E20006DEA72E00E94481588EF94E06FEE73E07F
:100E30000E94451588EF94E069EB72E00E94481526
:100E4000DF91CF911F910F91FF90EF90DF90CF90A6
:100E5000BF90AF909F908F900895EF92FF920F9365
:100E60001F9380910C0361E00E94481105EE14E08D
:100E700060910E0370910F03882777FD8095982F5E
:100E800020EA36E841E050E00E949417AB01BC0133
:100E9000C8010E94C10CC80164EC73E02FEF3FEF62
:100EA0004FEF5FEF0E94C90C88EF94E040E855E2F5
:100EB00060E070E026E00E945E120EE513E0C801DB
:100EC00064E144E020E00E94C30E8091060361E0EB
:100ED0000E9448118091080360E00E9448118091AF
:100EE0000A0360E00E94481181E066E673E042E098
:100EF00050E00E94540F8091060361E00E94871128
:100F000080910C036FEF70E00E94E810C80160E070
:100F100040E00E94650DAFEBEA2EA2E0FA2EC80178
:100F2000B7010E944515C80160E041E00E94650DCF
:100F3000C80164ED72E00E944515C80160E042E01E
:100F40000E94650DC80169EE72E00E944515C80156
:100F500060E043E00E94650DC801B7010E9445159D
:100F600068EE73E080E090E00E945E101F910F91A8
:100F7000FF90EF900895CF92DF92EF92FF920F9340
:100F80001F93CF93DF93EC016B01198618861B86A4
:100F90001A861D861C86888161E00E9487118CE379
:100FA00090E00E9419108A810E94DB11892BD9F7E9
:100FB0008A810E94DB11892BD9F31F8238E0E32E4E
:100FC000F12C01E010E028C08A810E94DB11892BFE
:100FD000D9F78CE390E00E9419108A810E94DB11FE
:100FE000892B91F08F819701281B3109C80102C01C
:100FF000880F991F2A95E2F79C0188859985822B95
:10100000932B9987888705C08A810E94DB11892BE1
:10101000D9F38F818F5F8F838F818930A8F28A8186
:101020000E94DB11892BD9F78A810E94DB11892B61
:10103000D9F31F8228E0E22EF12C01E010E027C056
:101040008A810E94DB11892BD9F78CE390E00E9402
:1010500019108A810E94DB11892B89F08F819701F9
:10106000281B3109F80102C0EE0FFF1F2A95E2F795
:101070008A859B858E2B9F2B9B878A8705C08A81BB
:101080000E94DB11892BD9F38F818F5F8F838F8132
:101090008930B0F2888160E00E9487111E821F8231
:1010A00041E050E013C09A0102C0220F331F8A951D
:1010B000E2F7C9012885398582239323892B19F00A
:1010C0008E818F5F8E838F818F5F8F838F81893039
:1010D00050F38E8180FD4FC01E821F8241E050E0A0
:1010E00013C0FA0102C0EE0FFF1F8A95E2F7CF018D
:1010F0002A853B8582239323892B19F08E818F5F6C
:101100008E838F818F5F8F838F81893050F38E81A3
:1011100080FD31C048855985569547955987488740
:101120002A853B85369527953B872A87742F60E073
:10113000622B732B7D836C8380E090E00E94A3166A
:1011400020E030EE4FEF54E40E940A1620E030E039
:1011500048E453E40E94311720E030E048E452E4D0
:101160000E94A5150E9472167D876C87F601718317
:10117000608381E001C080E0DF91CF911F910F91EA
:10118000FF90EF90DF90CF9008950F931F938C0105
:10119000862FF801608371835383428361E00E944C
:1011A0004811F801828160E00E9448111F910F915F
:1011B000089581E080936A04609347041092680464
:1011C0001092690408952091460430E0809145040E
:1011D000281B3109C90108954091450480914604B6
:1011E000481718F02FEF3FEF0AC0E42FF0E0EB5D57
:1011F000FB4F8081282F30E04F5F40934504C901A9
:101200000895E091450480914604E81718F0EFEF47
:10121000FFEF06C0F0E0EB5DFB4F8081E82FF0E0D0
:10122000CF010895089510926E0410926D0488EE17
:1012300093E0A0E0B0E080936F0490937004A093DB
:101240007104B093720489E193E090936C048093ED
:101250006B040895CF92DF92EF92FF920F931F934A
:10126000CF93DF937C016B018A0180916A0488230C
:10127000A1F0C0E0D0E00DC0D701ED91FC91D60106
:10128000AC0FBD1F0190F081E02DC7016C91099555
:101290002196C017D10780F304C0CB01642F0E94B0
:1012A0005C0AC801DF91CF911F910F91FF90EF90E1
:1012B000DF90CF900895DF93CF930F92CDB7DEB735
:1012C000FC01698380916A048823C9F080916904D4
:1012D000803238F081E090E09383828320E030E038
:1012E00015C080916804E82FF0E0E85BFB4F99811E
:1012F00090838F5F809368048093690405C0CE015A
:10130000019661E00E945C0A21E030E0C9010F9083
:10131000CF91DF9108950F93062F8091470468E4E1
:1013200074E04091690421E00E94070A1092680469
:101330001092690410926A040F91089561E00E946E
:101340008B090895413208F040E2862F65E274E08F
:101350000E94BE091092450480934604089521E03E
:101360000E94A2090895109245041092460410921A
:101370006804109269040E94080C0895382F4132C5
:1013800010F040E042C0809177048823E1F791E0BB
:1013900090937704209379048FEF8093E404109264
:1013A0009F0441504093A0044F5F90937804809134
:1013B0007804330F832B8093780480917A048130F2
:1013C00041F410927A04809178048093BB0085ECFC
:1013D00001C085EE8093BC00809177048130E1F3F9
:1013E00080919F04841710F440919F0420E030E026
:1013F0000AC0FB01E20FF31FD901A158BB4F8C912A
:1014000080832F5F3F4F2417A0F3842F08950F93FD
:101410001F93582F122F413210F081E04AC0809163
:1014200077048823E1F782E08093770400937904BE
:101430008FEF8093E40410929F044093A004AFE7E1
:10144000B4E0FB0102C081918D938E2F861B84171F
:10145000D0F31092780480917804550F852B8093F7
:10146000780480917A04813041F410927A0480915A
:1014700078048093BB0085EC01C085EE8093BC00AE
:10148000112321F0809177048230E1F38091E4040C
:101490008F3F11F480E00DC08091E404803211F49C
:1014A00082E007C08091E404803311F084E001C041
:1014B00083E01F910F910895482F613210F081E071
:1014C000089580917704843011F082E0089560934C
:1014D000C204A1EAB4E0842F9C01F90102C0819109
:1014E0008D938E2F841B8617D0F380E008951F9272
:1014F0000F920FB60F9211242F933F934F935F9348
:101500006F937F938F939F93AF93BF93EF93FF93CB
:101510008091B90090E0887F90708036910509F441
:10152000F2C081369105CCF58832910509F47BC073
:1015300089329105B4F48031910509F46FC081318D
:1015400091053CF4009709F447C1089709F04FC191
:1015500065C08831910509F466C0809709F047C1DC
:1015600082C08034910509F4A4C08134910544F40B
:101570008033910509F482C0C89709F038C189C049
:101580008035910509F489C08835910509F496C024
:101590008834910509F02BC1AEC08839910509F452
:1015A00013C189399105ECF48837910509F4ABC072
:1015B000893791054CF48836910509F4A4C0803729
:1015C000910509F014C19FC08838910509F4FCC049
:1015D0008039910509F49DC08038910509F007C153
:1015E00098C0803B910509F4C6C0813B91054CF43D
:1015F000803A910509F49FC0883A910509F0F7C037
:10160000BAC0803C910509F4E3C0883C910509F417
:10161000DFC0883B910509F0EAC0C2C08091780420
:101620008093BB00CFC090919F048091A004981735
:1016300068F490919F04E92FF0E0E158FB4F80811E
:101640008093BB009F5F90939F04BCC080917904FE
:10165000882309F44BC085ED8093BC008091BC00C9
:1016600084FDFCCFC2C080E28093E40485ED8093CA
:10167000BC008091BC0084FDFCCFB7C080E38093A8
:10168000E40485ED8093BC008091BC0084FDFCCF18
:10169000ACC088E38093E4049BC080919F04909148
:1016A000BB00E82FF0E0E158FB4F90838F5F809301
:1016B0009F0490919F048091A00482C080919F0418
:1016C0009091BB00E82FF0E0E158FB4F90838F5FD3
:1016D00080939F0480917904882341F085ED809365
:1016E000BC008091BC0084FDFCCF7FC081E0809372
:1016F0007A0484EA6EC085ED8093BC008091BC00C2
:1017000084FDFCCF72C083E0809377041092E304E1
:1017100059C08091E304803208F056C08091E30400
:101720009091BB00E82FF0E0ED53FB4F90838F5F6B
:101730008093E30447C08091E304803230F4E09169
:10174000E304F0E0ED53FB4F108285ED8093BC0085
:101750008091BC0084FDFCCF109277046091E3047B
:10176000E0917D04F0917E0483EC94E070E00995B3
:101770001092E3042DC084E0809377041092C1049A
:101780001092C204E0917B04F0917C040995809151
:10179000C204882329F481E08093C2041092A1043A
:1017A0009091C104E92FF0E0EF55FB4F80818093C9
:1017B000BB009F5F9093C1049091C1048091C204CB
:1017C000981710F485EC01C085E88093BC000FC029
:1017D00085EC8093BC0009C01092E40485ED8093F1
:1017E000BC008091BC0084FDFCCF10927704FF9177
:1017F000EF91BF91AF919F918F917F916F915F9189
:101800004F913F912F910F900FBE0F901F90189501
:101810001092770481E08093790410927A0482E137
:1018200061E00E94871183E161E00E948711E9EB8A
:10183000F0E080818E7F808380818D7F808388E44B
:101840008093B80085E48093BC0008951F920F92A6
:101850000FB60F9211242F933F934F935F936F9383
:101860007F938F939F93AF93BF93EF93FF93E091F9
:10187000E904F091EA040995FF91EF91BF91AF91CE
:101880009F918F917F916F915F914F913F912F9198
:101890000F900FBE0F901F901895FC01A3E0440F0E
:1018A000551F661F771FAA95D1F7403080E0580773
:1018B00081E0680780E0780714F481E010C033E02D
:1018C00075956795579547953A95D1F7403080E0E3
:1018D000580781E0680780E078071CF482E0828383
:1018E00039C023E075956795579547952A95D1F7A7
:1018F000403080E0580781E0680780E0780714F402
:1019000083E0EDCF92E075956795579547959A9549
:10191000D1F7403080E0580781E0680780E0780721
:1019200014F484E0DCCF82E0759567955795479570
:101930008A95D1F7403080E0580781E0680780E061
:10194000780714F485E0CBCF85E082834FEF5FEF1B
:1019500060E070E08FB78383F894518340835093A5
:1019600087004093860083818FBF80918100887FAC
:1019700080938100809181009281892B80938100E6
:1019800008951092800020E1209381000E944D0C68
:1019900008950F931F93CF93DF93EC018B011216E1
:1019A00013061406150624F4BA01A9010E944D0C71
:1019B0001D830C8381E080936F00809181009A8168
:1019C000892B80938100DF91CF911F910F91089512
:1019D000FC0112828FEF8183108213820895FC0133
:1019E0008381882331F0662319F48FEF8183089572
:1019F00011820895CF93DF93EC018B81882319F432
:101A000080E090E013C089818095862388838BE6EF
:101A100094E06A810E94D9088BE694E068810E9474
:101A20005B098BE694E00E949E0990E020E030E0A4
:101A3000892B11F421E030E0C901DF91CF910895A5
:101A4000CF93DF93EC016A838BE694E00E94B309A5
:101A50008BE694E06A8141E00E94AF091B828823F3
:101A600011F081E08B838BE694E00E94EC08888380
:101A70008B8190E0DF91CF91089508950895FC0146
:101A80001382128289E293E0918380830895FC019E
:101A9000A081B18118962D913C9119976FEFF901B2
:101AA00009950895DC01ED91FC910284F385E02D08
:101AB00040E009950895FC016581862F8460858347
:101AC0006C60CF010E94520D0895DC0117969C9125
:101AD0001797491710F0492F415018968C91189775
:101AE000803139F4943029F4E42FF0E0EB5CFC4FC2
:101AF00004C0E42FF0E0E75CFC4F8081680F606871
:101B0000CD010E94520D0895DC01ED91FC910284FB
:101B1000F385E02D41E0099581E090E0089561E0D2
:101B20000E94520D80ED97E00E9419100895CF9306
:101B3000DF93EC01423018F08C8188608C834F83F6
:101B40006887222329F0413019F48C8184608C83CA
:101B500064E670E080E090E00E945E106C8164FDBD
:101B600031C0E881F9810284F385E02DCE0163E084
:101B700042E0099584E991E10E941910E881F98118
:101B80000284F385E02DCE0163E042E0099584E90B
:101B900091E10E941910E881F9810284F385E02D1A
:101BA000CE0163E042E0099586E990E00E941910B9
:101BB000E881F9810284F385E02DCE0162E042E004
:101BC000099516C06062CE010E94520D84E991E130
:101BD0000E9419106C816062CE010E94520D86E94C
:101BE00090E00E9419106C816062CE010E94520D3B
:101BF0006C816062CE010E94520D84E08D83CE0123
:101C00000E945B0DCE010E948F0D82E08E83CE017B
:101C100066E00E94520DCE010E94470DDF91CF91E8
:101C20000895DC0181E090E002C0880F991F6A9559
:101C3000E2F71C968C931C971A965C934E93199717
:101C4000ED91FC9111970084F185E02DCD0160E0CC
:101C500009950895DF92EF92FF920F931F938C01E5
:101C6000D62E8EE0E82EF12CE00EF11EF8016289EE
:101C70006D29C7010E94FA0CF801628960956D21F7
:101C8000C7010E94FA0C1F910F91FF90EF90DF9017
:101C90000895DC01FC0120E090E070E060FF02C0EC
:101CA0008589282B9F5F3196943019F0759567953B
:101CB000F4CF413019F454964C9154971D968C9161
:101CC0001D97842B282BCD01622F0E942A0E089588
:101CD0000F931F93CF93DF93EC01142F062F0F70F8
:101CE000423019F4602F40E00CC070E044E075957C
:101CF00067954A95E1F7412F0E94490ECE01602F6A
:101D0000412F0E94490EDF91CF911F910F910895AD
:101D1000FC012485222399F081859285009719F48E
:101D2000662329F406C0019721F4662311F4258760
:101D300001C01586CF010E9665850E94FA0C0895A4
:101D40000F931F93CF93DF938C01EC012E96CE015E
:101D5000F80163850E94200D019719F020E030E022
:101D60000CC0CE0161E00E94EF0CF8011482CE019C
:101D700060E00E94FA0C21E030E0C901DF91CF91D0
:101D80001F910F910895DF92EF92FF920F931F938F
:101D90008C01F62EE42ED22E0E94A00EC8016F2DCB
:101DA0004E2D2D2D0E94970D1F910F91FF90EF90BA
:101DB000DF9008952F923F924F925F926F927F92A1
:101DC0008F929F92AF92BF92CF92DF92EF92FF924B
:101DD0000F931F93DF93CF93CDB7DEB73C01962EC1
:101DE000442E222E0E943F0D81E493E0F301918363
:101DF0008083C3010E960E94E80CF301938614863B
:101E000015861286118681E090E09C0102C0220FA7
:101E1000331F4A94E2F7228BFC0102C0EE0FFF1F32
:101E20002A94E2F71F01F301238A9C0102C0220FCA
:101E3000331F0A95E2F7248BFC0102C0EE0FFF1F4F
:101E4000EA94E2F77F01F301E58A9C0102C0220FC8
:101E5000331FCA94E2F7268BFC0102C0EE0FFF1F6E
:101E6000AA94E2F75F01F301A78A02C0880F991FC5
:101E70008A94E2F7808FC3016D894E895F890E9441
:101E8000110ECF91DF911F910F91FF90EF90DF9096
:101E9000CF90BF90AF909F908F907F906F905F900A
:101EA0004F903F902F900895823000F5E82FF0E09A
:101EB000EE0FFF1FE551FB4F71836083882319F0FC
:101EC0008130A1F408C0809169008C7F842B8093BD
:101ED0006900E89A089580916900440F551F440FE6
:101EE000551F837F842B80936900E99A08951F9280
:101EF0000F920FB60F9211242F933F934F935F933E
:101F00006F937F938F939F93AF93BF93EF93FF93C1
:101F10008091EB049091EC04892B29F0E091EB0483
:101F2000F091EC040995FF91EF91BF91AF919F91D2
:101F30008F917F916F915F914F913F912F910F9072
:101F40000FBE0F901F9018951F920F920FB60F9211
:101F500011242F933F934F935F936F937F938F93AE
:101F60009F93AF93BF93EF93FF938091ED04909174
:101F7000EE04892B29F0E091ED04F091EE0409952F
:101F8000FF91EF91BF91AF919F918F917F916F9151
:101F90005F914F913F912F910F900FBE0F901F9027
:101FA00018951F920F920FB60F9211242F933F9303
:101FB0008F939F93AF93BF938091F3049091F40418
:101FC000A091F504B091F6043091F7040196A11D9B
:101FD000B11D232F2D5F2D3720F02D570196A11D08
:101FE000B11D2093F7048093F3049093F404A0931D
:101FF000F504B093F6048091EF049091F004A09161
:10200000F104B091F2040196A11DB11D8093EF047B
:102010009093F004A093F104B093F204BF91AF91B8
:102020009F918F913F912F910F900FBE0F901F9016
:102030001895019739F0880F991F880F991F0297FB
:102040000197F1F70895789484B5826084BD84B5D2
:10205000816084BD85B5826085BD85B5816085BDA3
:10206000EEE6F0E0808181608083E1E8F0E01082BC
:10207000808182608083808181608083E0E8F0E0FD
:10208000808181608083E1EBF0E0808184608083E7
:10209000E0EBF0E0808181608083EAE7F0E080811E
:1020A000846080838081826080838081816080837E
:1020B0008081806880831092C1000895EF92FF9222
:1020C0000F931F93CF93DF937B018C013FB7F8945D
:1020D0008091EF049091F004A091F104B091F2048A
:1020E00026B5A89B05C02F3F19F00196A11DB11D73
:1020F0003FBFBA2FA92F982F8827820F911DA11DAE
:10210000B11D52E0880F991FAA1FBB1F5A95D1F726
:10211000EC0130C00E94A4153FB7F8948091EF0401
:102120009091F004A091F104B091F20426B5A89B1F
:1021300005C02F3F19F00196A11DB11D3FBFBA2F59
:10214000A92F982F8827820F911DA11DB11D32E064
:10215000880F991FAA1FBB1F3A95D1F78C1B9D0BA7
:10216000885E9340B8F20894E108F108010911096A
:10217000C851DC4FE114F1040105110559F6DF9156
:10218000CF911F910F91FF90EF900895982F8E306F
:1021900008F09E509770809114038295880F880FE5
:1021A000807C892B80937C0080917A00806480936E
:1021B0007A0080917A0086FDFCCF209178004091D2
:1021C0007900942F80E030E0282B392BC901089545
:1021D0001F93CF93DF93182FEB0161E00E9448110A
:1021E000209709F44AC0CF3FD10509F449C0E12F37
:1021F000F0E0E255FF4F84918330C1F0843028F441
:10220000813051F08230B1F50CC0863019F1873041
:1022100049F1843079F514C084B5806884BDC7BDA8
:1022200033C084B5806284BDC8BD2EC0809180005B
:10223000806880938000D0938900C093880024C078
:1022400080918000806280938000D0938B00C09347
:102250008A001AC08091B00080688093B000C0935B
:10226000B30012C08091B00080628093B000C09330
:10227000B4000AC0C038D1051CF4812F60E002C050
:10228000812F61E00E948711DF91CF911F91089506
:10229000CF93DF93482F50E0CA0186569F4FFC0131
:1022A00034914A575F4FFA018491882369F190E095
:1022B000880F991FFC01E859FF4FA591B491FC01CB
:1022C000EE58FF4FC591D491662351F42FB7F8947F
:1022D0008C91932F909589238C93888189230BC0AF
:1022E000623061F42FB7F8948C91932F90958923E5
:1022F0008C938881832B88832FBF06C09FB7F89467
:102300008C91832B8C939FBFDF91CF910895482FA1
:1023100050E0CA0182559F4FFC012491CA018656A4
:102320009F4FFC0194914A575F4FFA013491332338
:1023300009F440C0222351F1233071F0243028F4F5
:102340002130A1F0223011F514C02630B1F0273031
:10235000C1F02430D9F404C0809180008F7703C08D
:10236000809180008F7D8093800010C084B58F772E
:1023700002C084B58F7D84BD09C08091B0008F7785
:1023800003C08091B0008F7D8093B000E32FF0E018
:10239000EE0FFF1FEE58FF4FA591B4912FB7F894A1
:1023A000662321F48C919095892302C08C91892B0E
:1023B0008C932FBF0895682F70E0CB0182559F4FFB
:1023C000FC012491CB0186569F4FFC0144916A5732
:1023D0007F4FFB019491992319F420E030E03CC039
:1023E000222351F1233071F0243028F42130A1F060
:1023F000223011F514C02630B1F02730C1F024305E
:10240000D9F404C0809180008F7703C08091800050
:102410008F7D8093800010C084B58F7702C084B513
:102420008F7D84BD09C08091B0008F7703C08091FB
:10243000B0008F7D8093B000892F90E0880F991FA6
:1024400084589F4FFC01A591B4918C9120E030E01D
:10245000842311F021E030E0C9010895DC015C968D
:102460008C915C97FD01E80FF11DE35AFF4F20812D
:102470005C968C915C9790E001968F7390705C965F
:102480008C935C975696ED91FC91579720835096CC
:10249000ED91FC9151978081806480835B969C9143
:1024A0005B975C968C915C97981739F45296ED91F6
:1024B000FC91539780818F7D80830895DF92EF9206
:1024C000FF920F931F93CF93DF93EC017A018B015F
:1024D000D22EE889F98982E08083403081EE580766
:1024E00080E0680780E07807A1F060E079E08DE3A4
:1024F00090E0A80197010E94C6172150304040404B
:102500005040569547953795279580E120303807FC
:1025100098F0E889F989108260E874E88EE190E02B
:10252000A80197010E94C6172150304040405040FA
:102530005695479537952795EC85FD853083EE8533
:10254000FF852083188EEC89FD89D082EA89FB897A
:10255000808180618083EA89FB89808188608083B3
:10256000EA89FB89808180688083EA89FB89808190
:102570008F7D8083DF91CF911F910F91FF90EF901E
:10258000DF900895FC01818D228D90E0805C9F4F4B
:10259000821B910960E470E00E94B3170895FC016A
:1025A000918D828D981719F42FEF3FEF06C0828D21
:1025B000E80FF11D858D282F30E0C9010895DC0159
:1025C00059969C9159975A968C915A97981719F445
:1025D0002FEF3FEF10C05A968C915A97FD01E80FEC
:1025E000F11D958D5A968C915A978F5F8F735A96DD
:1025F0008C93292F30E0C9010895CF93DF93EC012C
:10260000888D882361F419C08C9185FF0AC0E88900
:10261000F989808185FF05C0CE010E942E12AA890A
:10262000BB898C9185FD05C0E889F989808186FD8B
:1026300004C00FB607FEE8CFF4CFDF91CF91089525
:102640000F931F93CF93DF93EC01062F9B8D8C8DFF
:10265000981791F5E889F989808185FF2DC0EE8969
:10266000FF896083E889F9898081806480831DC047
:102670000FB607FC08C0E889F989808185FF03C08F
:10268000CE010E942E128C8D181791F38B8DFE01B6
:10269000E80FF11DE35AFF4F00831B8FEA89FB8986
:1026A00080818062808381E0888F81E090E0DF918B
:1026B000CF911F910F9108951B8D1F5F1F73E3CF63
:1026C00088EE93E1892B51F080E090E0892B31F086
:1026D0000E94E813882311F00E94000008951F92C1
:1026E0000F920FB60F9211242F938F939F93EF9316
:1026F000FF93E0910805F0910905808182FD16C0E5
:10270000E0910E05F0910F052081909111059F5FDA
:102710009F7380911205981771F0E0911105F0E018
:10272000E850FB4F258F9093110505C0E0910E05F1
:10273000F0910F05E081FF91EF919F918F912F9183
:102740000F900FBE0F901F9018951092FB041092DF
:10275000FA0488EE93E0A0E0B0E08093FC0490934C
:10276000FD04A093FE04B093FF0481E593E09093F1
:10277000F9048093F80485EC90E09093050580932C
:10278000040584EC90E0909307058093060580ECA7
:1027900090E0909309058093080581EC90E0909378
:1027A0000B0580930A0582EC90E090930D058093D1
:1027B0000C0586EC90E090930F0580930E05109227
:1027C0001105109212051092130510921405089528
:1027D00088EF94E00E94C21220E0892B09F021E0EA
:1027E000822F08951F920F920FB60F9211242F93EC
:1027F0003F934F935F936F937F938F939F93AF9389
:10280000BF93EF93FF9388EF94E00E942E12FF9105
:10281000EF91BF91AF919F918F917F916F915F9158
:102820004F913F912F910F900FBE0F901F901895D1
:10283000CF93DF930E9423100E942D07C0E6D3E1BF
:102840000E94D6042097E1F30E946013F9CF089507
:10285000CF92DF92EF92FF920F931F93CF93DF936C
:102860007C016B018A01C0E0D0E00FC0D6016D9100
:102870006D01D701ED91FC910190F081E02DC70130
:102880000995C80FD91F015010400115110571F7A6
:10289000CE01DF91CF911F910F91FF90EF90DF90CC
:1028A000CF900895EF92FF920F931F938C01DC015C
:1028B000ED91FC910190F081E02D6DE009957C0196
:1028C000D801ED91FC910190F081E02DC8016AE002
:1028D00009959C012E0D3F1DC9011F910F91FF907D
:1028E000EF900895CF93DF93EC016115710519F412
:1028F00020E030E00FC0DB010D900020E9F71197D8
:10290000A61BB70BE881F9810280F381E02DAD01B0
:1029100009959C01C901DF91CF9108954F925F9273
:102920007F928F929F92AF92BF92CF92DF92EF925F
:10293000FF920F931F93DF93CF93CDB7DEB7A1978D
:102940000FB6F894DEBF0FBECDBF2C01742ECB01A5
:10295000223008F42AE019A231E2C32ED12CCC0E89
:10296000DD1E822E9924AA24BB24672D752FA50174
:1029700094010E94C61779018A01C801B701A50117
:1029800094010E949417472D461B0894C108D10852
:102990004A3014F4405D01C0495CF6014083E11403
:1029A000F1040105110521F07E2C5F2DC801DDCF5A
:1029B000C201B6010E947214A1960FB6F894DEBF50
:1029C0000FBECDBFCF91DF911F910F91FF90EF9080
:1029D000DF90CF90BF90AF909F908F907F905F904F
:1029E0004F900895CF92DF92EF92FF920F931F9333
:1029F000CF93DF93EC016A017B012115310541F48E
:102A0000E881F9810190F081E02D642F09951FC0C4
:102A10002A303105D1F477FF17C0E881F9810190A0
:102A2000F081E02D6DE209958C0144275527BA010C
:102A30004C195D096E097F09CE012AE00E948E14AF
:102A40009801280F391F04C02AE00E948E149C01AF
:102A5000C901DF91CF911F910F91FF90EF90DF900F
:102A6000CF900895EF92FF920F931F937B019A01ED
:102A70000027F7FC0095102FB801A7010E94F2145F
:102A80001F910F91FF90EF9008950E947214089586
:102A9000EF92FF920F931F937C010E9472148C019E
:102AA000C7010E945214080F191FC8011F910F91EE
:102AB000FF90EF9008952F923F924F925F926F9206
:102AC0007F928F929F92AF92BF92CF92DF92EF92BE
:102AD000FF920F931F93DF93CF93CDB7DEB73B01E8
:102AE0004C0119012A016D897E898F89988D6A1997
:102AF0007B098C099D09621A730A840A950AA4014C
:102B000093010E949417E218F30804091509A8011B
:102B100097010E94E8172A0D3B1D4C1D5D1DB90150
:102B2000CA01CF91DF911F910F91FF90EF90DF903D
:102B3000CF90BF90AF909F908F907F906F905F905D
:102B40004F903F902F90089508955058BB27AA2783
:102B50000ED04DC13ED130F043D120F031F49F3F33
:102B600011F41EF433C10EF4E095E7FB29C1E92FFF
:102B70004FD180F3BA17620773078407950718F0DF
:102B800071F49EF567C10EF4E0950B2EBA2FA02DBF
:102B90000B01B90190010C01CA01A0011124FF270A
:102BA000591B99F0593F50F4503E68F11A16F04005
:102BB000A22F232F342F4427585FF3CF4695379504
:102BC0002795A795F0405395C9F77EF41F16BA0BC9
:102BD000620B730B840BBAF09150A1F0FF0FBB1F77
:102BE000661F771F881FC2F70EC0BA0F621F731FC0
:102BF000841F48F4879577956795B795F7959E3F1D
:102C000008F0B3CF9395880F08F09927EE0F9795AA
:102C1000879508950CD0EBC0E3D040F0DAD030F0C7
:102C200021F45F3F19F0CCC0511115C1CFC0F0D0D5
:102C300098F39923C9F35523B1F3951B550BBB2783
:102C4000AA2762177307840738F09F5F5F4F220F30
:102C5000331F441FAA1FA9F333D00E2E3AF0E0E829
:102C600030D091505040E695001CCAF729D0FE2F75
:102C700027D0660F771F881FBB1F26173707480707
:102C8000AB07B0E809F0BB0B802DBF01FF279358BD
:102C90005F4F2AF09E3F510568F092C0DCC05F3F55
:102CA000ECF3983EDCF3869577956795B795F795A5
:102CB0009F5FC9F7880F911D9695879597F908959D
:102CC000E1E0660F771F881FBB1F62177307840739
:102CD000BA0720F0621B730B840BBA0BEE1F88F748
:102CE000E095089504D06894B111B5C0089598D0C6
:102CF00088F09F5790F0B92F9927B751A0F0D1F0E5
:102D0000660F771F881F991F1AF0BA95C9F712C06E
:102D1000B13081F09FD0B1E008959CC0672F782F2B
:102D20008827B85F39F0B93FCCF3869577956795DA
:102D3000B395D9F73EF490958095709561957F4F46
:102D40008F4F9F4F0895E89409C097FB3EF49095EC
:102D50008095709561957F4F8F4F9F4F9923A9F074
:102D6000F92F96E9BB279395F69587957795679503
:102D7000B795F111F8CFFAF4BB0F11F460FF1BC047
:102D80006F5F7F4F8F4F9F4F16C0882311F096E9DA
:102D900011C0772321F09EE8872F762F05C0662388
:102DA00071F096E8862F70E060E02AF09A95660F41
:102DB000771F881FDAF7880F9695879597F90895FA
:102DC00097F99F6780E870E060E008959FEF80ECDE
:102DD000089500240A941616170618060906089581
:102DE00000240A9412161306140605060895092EE7
:102DF0000394000C11F4882352F0BB0F40F4BF2B56
:102E000011F460FF04C06F5F7F4F8F4F9F4F089595
:102E100057FD9058440F551F59F05F3F71F047958B
:102E2000880F97FB991F61F09F3F79F08795089570
:102E3000121613061406551FF2CF4695F1DF08C08F
:102E4000161617061806991FF1CF869571056105AC
:102E500008940895E894BB2766277727CB0197F954
:102E600008950BD0C4CFB5DF28F0BADF18F0952352
:102E700009F0A6CFABCF1124EECFCADFA0F3959F08
:102E8000D1F3950F50E0551F629FF001729FBB2751
:102E9000F00DB11D639FAA27F00DB11DAA1F649FFD
:102EA0006627B00DA11D661F829F2227B00DA11DB0
:102EB000621F739FB00DA11D621F839FA00D611D36
:102EC000221F749F3327A00D611D231F849F600D57
:102ED000211D822F762F6A2F11249F5750408AF090
:102EE000E1F088234AF0EE0FFF1FBB1F661F771F1C
:102EF000881F91505040A9F79E3F510570F060CF58
:102F0000AACF5F3FECF3983EDCF386957795679503
:102F1000B795F795E7959F5FC1F7FE2B880F911D39
:102F20009695879597F90895629FD001739FF00158
:102F3000829FE00DF11D649FE00DF11D929FF00D49
:102F4000839FF00D749FF00D659FF00D9927729F80
:102F5000B00DE11DF91F639FB00DE11DF91FBD010B
:102F6000CF011124089597FB092E07260AD077FD7B
:102F700004D049D006D000201AF4709561957F4F97
:102F80000895F6F7909581959F4F0895A1E21A2E26
:102F9000AA1BBB1BFD010DC0AA1FBB1FEE1FFF1FFD
:102FA000A217B307E407F50720F0A21BB30BE40B4D
:102FB000F50B661F771F881F991F1A9469F7609594
:102FC0007095809590959B01AC01BD01CF0108954E
:102FD00097FB092E05260ED057FD04D0D7DF0AD067
:102FE000001C38F450954095309521953F4F4F4F38
:102FF0005F4F0895F6F790958095709561957F4F96
:103000008F4F9F4F0895AA1BBB1B51E107C0AA1FFA
:10301000BB1FA617B70710F0A61BB70B881F991F79
:103020005A95A9F780959095BC01CD010895EE0FB2
:10303000FF1F0590F491E02D09942F923F924F923B
:103040005F926F927F928F929F92AF92BF92CF9238
:10305000DF92EF92FF920F931F93CF93DF93CDB741
:10306000DEB7CA1BDB0B0FB6F894DEBF0FBECDBFB9
:1030700009942A88398848885F846E847D848C848A
:103080009B84AA84B984C884DF80EE80FD800C8193
:103090001B81AA81B981CE0FD11D0FB6F894DEBF76
:0C30A0000FBECDBFED010895F894FFCFE6
:1030AC005620426F6172647370616E6E756E67004C
:1030BC002020416E736175676B6C61707065207A4E
:1030CC00750020205654454320616E00202020209E
:1030DC00202020202020202020000043204D6F7431
:1030EC006F727261756D004320416E736175676B11
:1030FC006C617070650041757373656E74656D708D
:10310C00657261747572002043656C736975730028
:10311C00496E6E656E74656D706572617475720062
:10312C006C647275636B0042617220006C74656D27
:10313C0070657261747572004320002D2D2D2D2D3C
:10314C002D2D2D2D2D2D2D2D2D2D2D2D2D2D2D2DA3
:10315C002D2D2D2D2D2D2D2D2D2D2D2D2D2D2D2D93
:10316C002D2D2D2D2D2D2D2D2D2D2D2D2D2D2D00B0
:10317C00486F6E6475696E6F206275696C6420624D
:10318C0079205370697466697265585000486F6E87
:10319C006475696E6F4053706974666972655850D6
:1031AC002E646500486F6E6475696E6F205665728B
:1031BC0073696F6E20312E32002043204175C39FFE
:1031CC00656E74656D706572617475720020432054
:1031DC00496E6E656E74656D7065726174757200A2
:1031EC002043204BC3BC686C776173736572746544
:1031FC006D7065726174757200204320416E73644A
:10320C006175676C75667474656D706572617475E3
:10321C007200204320C3966C74656D706572617486
:10322C007572002042617220C3966C647275636B78
:10323C000020536368616C74736175676272C3BC00
:10324C00636B65002056544543003B2000204865C5
:10325C006C6C69676B6569740020566F6C74002325
:10326C002323232323232323232323232323232322
:10327C0023232300232020203C3C486F6E64756977
:10328C006E6F3E3E20202023002320202020202073
:10329C0056657273696F6E20312E332023000E0039
:1032AC000F00100011000D000C0002000B000100BB
:1032BC000100010001000000005B092A09E308EC91
:1032CC00080109120900000000840D2814970D3D17
:1032DC000D3E0D2714004010500040145400000007
:1032EC0000840D2814C30E110E880E680E00000009
:0E32FC000020132814C212DF12CF12FD1200A0
:00000001FF
