:100000000C94E1000C94100F0C943D0F0C9409011A
:100010000C9409010C9409010C9409010C94090138
:100020000C9409010C9409010C9409010C94090128
:100030000C9409010C94BF0B0C9409010C94090158
:100040000C946A0F0C9409010C9408130C948B13F4
:100050000C9409010C9409010C9409010C940901F8
:100060000C94100A0C9409010000000024002700E1
:100070002A0000000000250028002B0000000000DE
:1000800023002600290004040404040404040202DA
:100090000202020203030303030301020408102007
:1000A0004080010204081020010204081020000012
:1000B0000007000201000003040600000000000029
:1000C000000000407A10F35A00A0724E1809001088
:1000D000A5D4E80000E87648170000E40B540200BD
:1000E00000CA9A3B000000E1F505000080969800E8
:1000F000000040420F000000A08601000000102711
:1001000000000000E80300000000640000000000A0
:100110000A00000000000100000000002C76D888D2
:10012000DC674F0823DFC1DFAE59E1B1B796E5E3E5
:10013000E453C63AE651997696E8E6C28426EB89FE
:100140008C9B62ED407C6FFCEFBC9C9F40F2BAA59B
:100150006FA5F490055A2AF75C936B6CF9676DC133
:100160001BFCE0E40D47FEF520E6B500D0ED902E37
:100170000300943577050080841E080000204E0A95
:10018000000000C80C333333330F986E12831141D3
:10019000EF8D2114893BE65516CFFEE6DB18D1849E
:1001A0004B381BF77C1D901DA4BBE42420328472C5
:1001B0005E228100C9F124ECA1E53D277E03AC0855
:1001C0003E1311241FBECFEFD8E0DEBFCDBF13E03A
:1001D000A0E0B1E0EEEDFFE202C005900D92A83381
:1001E000B107D9F715E0A8E3B3E001C01D92AF361F
:1001F000B107E1F711E0C2ECD1E004C02297FE01A3
:100200000E94B217CC3BD107C9F70E94B1130C94DE
:10021000ED170C940000EF92FF920F931F93F22FB3
:10022000F02E47FD02C0E4E001C0E4E1242F3327B3
:1002300027FD309537FF03C0309521953F4F4F2D57
:10024000512F0F2FEE2E0E942C018F2D912F1F91D9
:100250000F91FF90EF900895A9E0B0E0E2E3F1E0A4
:100260000C94BA176A01122FA02EBE2C2BE3201774
:1002700018F42CE3922E02C0902E9394AE014F5F9F
:100280005F4F27E0092D0E948E02BC018981E82E74
:10029000FF24C70189709070019711F4ADE209C085
:1002A000B1FE02C0ABE205C0B0FC02C0A0E001C0DC
:1002B000A0E2E3FE3BC0AA2311F423E001C024E046
:1002C000211710F020E002C0121B212FEB2CB4FEEE
:1002D00002C0322F0AC0F601322F80E202C08193A1
:1002E00031503323E1F7C20ED11CAA2319F0F601D5
:1002F000A1936F01F6013196E2FE05C09EE4D6019E
:100300009C9381E404C09EE6D6019C9381E61196FD
:100310008C9391833296DF01832F90E202C09D93EC
:1003200081508823E1F7E30FF11D40C0E2FE42C097
:10033000AA2311F423E001C024E0211710F020E0EB
:1003400002C0121B212FEB2CB4FE02C0922F0AC058
:10035000F601922F80E202C0819391509923E1F738
:10036000C20ED11CAA2319F0F601A1936F01F60168
:100370003196E2FE08C089E4D6018C938EE4119692
:100380008C9386E407C089E6D6018C938EE611969D
:100390008C9386E681833296DF01892F20E202C0AA
:1003A0002D9381508823E1F7E90FF11D10822EEF84
:1003B0003FEFAFC0161617061CF041E050E003C037
:1003C000AB014F5F5F4FAA2019F480E090E003C0BB
:1003D0008A2D90E0019620E030E0AA2311F021E080
:1003E00030E0240F351F280F391F812F90E0281788
:1003F000390714F020E002C0121B212F4B2D50E0D2
:10040000CA0180719070B4FC0DC0B3FC0BC0F60142
:10041000322F40E202C0419331503323E1F7C20E44
:10042000D11C01C0322FAA2319F0F601A1936F014C
:10043000892B11F0132F0AC0F601132F80E302C09D
:10044000819311501123E1F7C30ED11C092D060F22
:10045000BA8090E1892E912C8E209F20E4FE04C06A
:10046000F1E3BF1609F40150101614F001E003C0C7
:10047000093008F008E09B0177FF02C020E030E07F
:10048000CB010196821B930BFE013196E80FF91FF9
:100490008EE2F82E3B01601A71088A2D90E0442705
:1004A0005527481B590B8FEF2F3F380719F4D601FA
:1004B000FD926D01621773072CF06216730614F437
:1004C000808101C080E321503040319624173507E8
:1004D00024F0D6018D936D01E6CF2617370749F436
:1004E000B5E3BB1528F0BB1621F48114910409F47F
:1004F00081E3F6018193D601812F90E202C09C93A3
:10050000815011968823D9F7E10FF11D108220E068
:1005100030E0C9012996EEE00C94D617283008F097
:1005200027E03327DA01990F311D87FD916000968E
:100530006105710539F432602E5F3D9330E32A95F1
:10054000E1F708959F3F30F080387105610509F0AB
:100550003C5F3C5F3D93913008F08068911DDF93D4
:10056000CF931F930F93FF92EF92192F987F969539
:10057000E92F96959695E90FFF27E45EFE4F9927A0
:100580003327EE24FF24A701E70105900894079480
:1005900028F4360FE71EF81E491F511D660F771FFE
:1005A000881F991F0694A1F70590079428F4E70E79
:1005B000F81E491F561FC11D770F881F991F661F00
:1005C0000694A1F70590079428F4F80E491F561FCA
:1005D000C71FD11D880F991F661F771F0694A1F7AB
:1005E0000590079420F4490F561FC71FD81F990F75
:1005F000661F771F881F0694A9F7849110951770BE
:1006000041F0D695C79557954795F794E7941A9575
:10061000C1F7E2ECF0E06894159015913591659181
:10062000959105907FE27395E118F10A430B560B03
:10063000C90BD009C0F7E10CF11E431F561FC91F9B
:10064000D01D7EF4703311F48A95E6CFE894015002
:1006500030F0080F0AF40027021708F4202F239522
:10066000022F7A3328F079E37D932A95E9F710C0B9
:100670007D932A9589F606949795679537951795F2
:100680001794E118F10A430B560BC90BD00998F0E7
:1006900023957E9173957A3308F070E37C93201351
:1006A000B8F77E9170617D9330F0839571E37D930F
:1006B00070E32A95E1F71124EF90FF900F911F91BD
:1006C000CF91DF91992787FD9095089521E030E043
:1006D0003093EE022093ED028091EB029091EC02B8
:1006E0008230910534F401969093EC028093EB02F2
:1006F00008953093EC022093EB0208958F92AF920D
:10070000CF92EF920F9300D00F9283E0EDB7FEB738
:1007100081831382128288E393E067E242E021E062
:1007200000E0E4E0EE2E75E0C72E56E0A52E37E09F
:10073000832E0E94730E0F900F900F908BE593E025
:1007400060E070E045E050E00E945E0889E693E0DA
:1007500060E070E048E050E00E945E0887E793E0C8
:1007600060E070E046E050E00E945E0885E893E0BB
:1007700060E070E047E050E00E945E080F91EF906B
:10078000CF90AF908F9008951F938091FD0390912B
:10079000FE03892B81F48091FB039091FC03019768
:1007A00051F41091E102812F0E94741161E06827D9
:1007B000812F0E9420111F9108950F931F9308E32A
:1007C00013E0C80160E040E00E94FE0CC80169EC43
:1007D00073E00E94DE14C80160E071E00E94DE1444
:1007E000C80160E041E00E94FE0CC80160E171E0D8
:1007F0000E94DE14C80160E042E00E94FE0C60919D
:10080000570370915803C8014AE050E00E94CB148E
:10081000C80160E271E00E94DE14C80160E043E0BC
:100820000E94FE0C6091590370915A03C8014AE07E
:1008300050E00E94CB14C8016EE271E00E94DE1409
:100840001F910F9108950F931F9308E313E0C801C0
:1008500060E042E00E94FE0C6091530370915403EB
:10086000C8014AE050E00E94CB14C80160E471E086
:100870000E94DE14C80160E043E00E94FE0C60911B
:10088000550370915603C8014AE050E00E94CB1412
:10089000C8016EE471E00E94DE14C80160E040E02F
:1008A0000E94FE0CC80163E973E00E94DE14C801D7
:1008B0006BE571E00E94DE14C8016FEE0E941D0D11
:1008C000C80160E671E00E94DE14C80160E041E00A
:1008D0000E94FE0C6091C5037091C603C8014AE0F6
:1008E00050E00E94CB14C80167E671E00E94DE145C
:1008F000C8016FEE0E941D0DC8016AE671E00E94FA
:10090000DE141F910F9108958F929F92AF92BF9224
:10091000CF92DF92EF92FF920F931F93CF93DF93CB
:100920008091DF020E945F10BC01843691051CF4A7
:10093000C4E6D0E007C0EC0182E06D3B780714F01C
:10094000CCEBD2E000D000D0BE01882777FD8095A7
:10095000982F2EE130E040E050E0EDB7FEB7218364
:100960003283438354832CEB32E040E050E0F4E6E2
:10097000EF2EF12C012D112DEFEFAE2EB12CC12C4D
:10098000D12C0E94F4149B01AC014B010F900F90ED
:100990000F900F908091E702B9010E948110809121
:1009A000ED029091EE02019741F488E393E00E94FA
:1009B000280D1092EE021092ED028091EB029091C0
:1009C000EC028130910519F0029731F403C00E94C6
:1009D000230402C00E94DD038BE593E063E573E02E
:1009E0000E945407809351031092520389E693E0CA
:1009F00065E573E00E9454078093510310925203FF
:100A000087E793E067E573E00E9454078093510302
:100A10001092520385E893E069E573E00E94540761
:100A200080935103109252038091D9020E945F106B
:100A300000D000D0AA2797FDA095BA2F24E630E079
:100A400040E050E0EDB7FEB7218332834383548307
:100A5000BC01CD0120E030E040E050E0BFEFEB2EE4
:100A6000B3E0FB2E012D112DAA24BB2465010E94A9
:100A7000F4140F900F900F900F90882777FD8095BA
:100A8000982F0E943E1620E030E040E251E40E94A0
:100A9000A31542E021E003E913E00E940B018091DD
:100AA000DB020E945F109093C6038093C50300D0C1
:100AB00000D0AA2797FDA095BA2F26E930E040E0A4
:100AC00050E0EDB7FEB72183328343835483BC01EA
:100AD000CD0120E030E040E050E0AFEFEA2EA3E0AF
:100AE000FA2E012D112DFCEEAF2EFFEFBF2EFFEFE2
:100AF000CF2EFFEFDF2E0E94F4147093C603609395
:100B0000C5030F900F900F900F908091DD020E940F
:100B10005F109093C8038093C70300D000D0AA272A
:100B200097FDA095BA2F2CED30E040E050E0EDB7F6
:100B3000FEB72183328343835483BC01CD0120E07F
:100B400030E040E050E0AA24BB2465010E94F41488
:100B50007093C8036093C7030F900F900F900F908E
:100B6000882777FD8095982F0E943E1620E030E080
:100B700040E251E40E94A31542E021E009EC13E0B9
:100B80000E940B018091E3020E9474119093FC0378
:100B90008093FB038091E5020E9474119093FE0301
:100BA0008093FD03019751F48091FB039091FC0326
:100BB000892B21F48091E10261E003C08091E10280
:100BC00060E00E94201182ED94E066E771E00E94EF
:100BD000E11482ED94E06BEA71E00E94E11482ED91
:100BE00094E068EC71E00E94E11482ED94E06FED16
:100BF00071E00E94E11482ED94E066E771E00E94EA
:100C0000E114609153037091540382ED94E04AE043
:100C100050E00E94CB1482ED94E064EF71E00E94FA
:100C2000E114609155037091560382ED94E04AE01F
:100C300050E00E94CB1482ED94E068E072E00E94E4
:100C4000E114609157037091580382ED94E04AE0FB
:100C500050E00E94CB1482ED94E06BE172E00E94C0
:100C6000E1146091590370915A0382ED94E04AE0D7
:100C700050E00E94CB1482ED94E064E372E00E94A5
:100C8000E1146091C5037091C60382ED94E04AE0DF
:100C900050E00E94CB1482ED94E06DE472E00E947B
:100CA000E11482ED94E063E973E00E94DE1482EDCA
:100CB00094E06EE572E00E94E1146091E5027091AB
:100CC000E60282ED94E04AE050E00E94CB1482ED0F
:100CD00094E06CE672E00E94E1146091E30270918E
:100CE000E40282ED94E04AE050E00E94CB1482EDF1
:100CF00094E06FE772E00E94E1146091DF0270916E
:100D0000E00282ED94E04AE050E00E94CB1482EDD4
:100D100094E065E872E00E94DE1482ED94E0BE018A
:100D20004AE050E00E94CB1482ED94E065E872E066
:100D30000E94DE1482ED94E0B4014AE050E00E948B
:100D4000CB1482ED94E065E872E00E94DE1482ED3F
:100D500094E068E872E00E94E11482ED94E069ECAE
:100D600073E00E94DE1482ED94E064E972E00E9478
:100D7000E114DF91CF911F910F91FF90EF90DF90E1
:100D8000CF90BF90AF909F908F900895EF92FF9279
:100D90000F931F938091E70261E00E94E1100FEB37
:100DA00014E06091E9027091EA02882777FD80954E
:100DB000982F20EA36E841E050E00E942D17AB0161
:100DC000BC01C8010E945A0CC80164EC73E02FEF0B
:100DD0003FEF4FEF5FEF0E94620C82ED94E040E83E
:100DE00055E260E070E026E00E94F71108E313E0AE
:100DF000C80164E144E020E00E945C0E8091E102C1
:100E000061E00E94E1108091E30260E00E94E11045
:100E10008091E50260E00E94E11081E066E673E007
:100E200042E050E00E94ED0E8091E10261E00E94FC
:100E300020118091E7026FEF70E00E948110C801DD
:100E400060E040E00E94FE0CAAE9EA2EA2E0FA2E41
:100E5000C801B7010E94DE14C80160E041E00E94B1
:100E6000FE0CC8016FEA72E00E94DE14C80160E067
:100E700042E00E94FE0CC80164EC72E00E94DE14A5
:100E8000C80160E043E00E94FE0CC801B7010E9467
:100E9000DE1464EC79E080E090E00E94F70F1F918F
:100EA0000F91FF90EF900895CF92DF92EF92FF9213
:100EB0000F931F93CF93DF93EC016B011986188674
:100EC0001B861A861D861C86888161E00E9420117F
:100ED0008CE390E00E94B20F8A810E947411892BEA
:100EE000D9F78A810E947411892BD9F31F8238E0C7
:100EF000E32EF12C01E010E028C08A810E947411D9
:100F0000892BD9F78CE390E00E94B20F8A810E946E
:100F10007411892B91F08F819701281B3109C80129
:100F200002C0880F991F2A95E2F79C018885998550
:100F3000822B932B9987888705C08A810E94741120
:100F4000892BD9F38F818F5F8F838F818930A8F2AE
:100F50008A810E947411892BD9F78A810E947411A9
:100F6000892BD9F31F8228E0E22EF12C01E010E05A
:100F700027C08A810E947411892BD9F78CE390E0F5
:100F80000E94B20F8A810E947411892B89F08F818F
:100F90009701281B3109F80102C0EE0FFF1F2A95A7
:100FA000E2F78A859B858E2B9F2B9B878A8705C0BE
:100FB0008A810E947411892BD9F38F818F5F8F836F
:100FC0008F818930B0F2888160E00E9420111E82FA
:100FD0001F8241E050E013C09A0102C0220F331F6C
:100FE0008A95E2F7C9012885398582239323892BC5
:100FF00019F08E818F5F8E838F818F5F8F838F81BA
:10100000893050F38E8180FD4FC01E821F8241E0E7
:1010100050E013C0FA0102C0EE0FFF1F8A95E2F7FD
:10102000CF012A853B8582239323892B19F08E815A
:101030008F5F8E838F818F5F8F838F81893050F395
:101040008E8180FD31C048855985569547955987D1
:1010500048872A853B85369527953B872A87742FB5
:1010600060E0622B732B7D836C8380E090E00E94B4
:101070003C1620E030EE4FEF54E40E94A31520E030
:1010800030E048E453E40E94CA1620E030E048E42F
:1010900052E40E943E150E940B167D876C87F60174
:1010A0007183608381E001C080E0DF91CF911F9167
:1010B0000F91FF90EF90DF90CF9008950F931F93C3
:1010C0008C01862FF801608371835383428361E032
:1010D0000E94E110F801828160E00E94E1101F91FE
:1010E0000F91089581E0809344046093210410924D
:1010F00042041092430408952091200430E080912E
:101100001F04281B3109C901089540911F048091D3
:101110002004481718F02FEF3FEF0AC0E42FF0E04B
:10112000E150FC4F8081282F30E04F5F40931F0437
:10113000C9010895E0911F0480912004E81718F078
:10114000EFEFFFEF06C0F0E0E150FC4F8081E82FA9
:10115000F0E0CF01089508951092480410924704DA
:1011600088EE93E0A0E0B0E08093490490934A04B5
:10117000A0934B04B0934C0484EF92E09093460408
:10118000809345040895CF92DF92EF92FF920F93E0
:101190001F93CF93DF937C016B018A0180914404FC
:1011A0008823A1F0C0E0D0E00DC0D701ED91FC9103
:1011B000D601AC0FBD1F0190F081E02DC7016C91ED
:1011C00009952196C017D10780F304C0CB01642F85
:1011D0000E94F509C801DF91CF911F910F91FF90F7
:1011E000EF90DF90CF900895DF93CF930F92CDB71C
:1011F000DEB7FC016983809144048823C9F08091A3
:101200004304803238F081E090E09383828320E0D1
:1012100030E015C080914204E82FF0E0EE5DFB4F16
:10122000998190838F5F809342048093430405C02B
:10123000CE01019661E00E94F50921E030E0C9018C
:101240000F90CF91DF9108950F93062F8091210485
:1012500062E274E04091430421E00E94A0091092F0
:10126000420410924304109244040F91089561E0E7
:101270000E9424090895413208F040E2862F6FEF62
:1012800073E00E94570910921F0480932004089570
:1012900021E00E943B09089510921F04109220043F
:1012A00010924204109243040E94A10B0895382F1B
:1012B000413210F040E042C0809151048823E1F7B0
:1012C00091E090935104209353048FEF8093BE04D8
:1012D00010927904415040937A044F5F90935204E6
:1012E00080915204330F832B8093520480915404D5
:1012F000813041F410925404809152048093BB00D9
:1013000085EC01C085EE8093BC0080915104813052
:10131000E1F380917904841710F44091790420E07E
:1013200030E00AC0FB01E20FF31FD901A75ABB4FFF
:101330008C9180832F5F3F4F2417A0F3842F089553
:101340000F931F93582F122F413210F081E04AC0A3
:10135000809151048823E1F782E080935104009347
:1013600053048FEF8093BE041092790440937A0463
:10137000A9E5B4E0FB0102C081918D938E2F861BFD
:101380008417D0F31092520480915204550F852B8C
:101390008093520480915404813041F4109254049B
:1013A000809152048093BB0085EC01C085EE809350
:1013B000BC00112321F0809151048230E1F380912F
:1013C000BE048F3F11F480E00DC08091BE048032D6
:1013D00011F482E007C08091BE04803311F084E0F4
:1013E00001C083E01F910F910895482F613210F0E2
:1013F00081E0089580915104843011F082E00895D5
:1014000060939C04ABE7B4E0842F9C01F90102C017
:1014100081918D938E2F841B8617D0F380E00895E1
:101420001F920F920FB60F9211242F933F934F9359
:101430005F936F937F938F939F93AF93BF93EF933C
:10144000FF938091B90090E0887F9070803691057D
:1014500009F4F2C081369105CCF58832910509F482
:101460007BC089329105B4F48031910509F46FC0D5
:10147000813191053CF4009709F447C1089709F0C0
:101480004FC165C08831910509F466C0809709F0A5
:1014900047C182C08034910509F4A4C0813491050C
:1014A00044F48033910509F482C0C89709F038C12B
:1014B00089C08035910509F489C08835910509F402
:1014C00096C08834910509F02BC1AEC088399105CA
:1014D00009F413C189399105ECF48837910509F4B1
:1014E000ABC0893791054CF48836910509F4A4C046
:1014F0008037910509F014C19FC08838910509F41F
:10150000FCC08039910509F49DC08038910509F02F
:1015100007C198C0803B910509F4C6C0813B910585
:101520004CF4803A910509F49FC0883A910509F07E
:10153000F7C0BAC0803C910509F4E3C0883C91052E
:1015400009F4DFC0883B910509F0EAC0C2C0809170
:1015500052048093BB00CFC09091790480917A04AB
:10156000981768F490917904E92FF0E0E75AFB4F5F
:1015700080818093BB009F5F90937904BCC0809171
:101580005304882309F44BC085ED8093BC008091FF
:10159000BC0084FDFCCFC2C080E28093BE0485ED18
:1015A0008093BC008091BC0084FDFCCFB7C080E379
:1015B0008093BE0485ED8093BC008091BC0084FDC7
:1015C000FCCFACC088E38093BE049BC080917904BB
:1015D0009091BB00E82FF0E0E75AFB4F90838F5FBC
:1015E000809379049091790480917A0482C08091EB
:1015F00079049091BB00E82FF0E0E75AFB4F90830D
:101600008F5F8093790480915304882341F085EDA6
:101610008093BC008091BC0084FDFCCF7FC081E042
:101620008093540484EA6EC085ED8093BC00809161
:10163000BC0084FDFCCF72C083E080935104109203
:10164000BD0459C08091BD04803208F056C080911D
:10165000BD049091BB00E82FF0E0E356FB4F908370
:101660008F5F8093BD0447C08091BD04803230F409
:10167000E091BD04F0E0E356FB4F108285ED8093CE
:10168000BC008091BC0084FDFCCF1092510460919D
:10169000BD04E0915704F09158048DE994E070E0A6
:1016A00009951092BD042DC084E0809351041092DE
:1016B0009B0410929C04E0915504F0915604099506
:1016C00080919C04882329F481E080939C041092EB
:1016D0007B0490919B04E92FF0E0E558FB4F80815B
:1016E0008093BB009F5F90939B0490919B0480919B
:1016F0009C04981710F485EC01C085E88093BC0029
:101700000FC085EC8093BC0009C01092BE0485ED2B
:101710008093BC008091BC0084FDFCCF10925104EA
:10172000FF91EF91BF91AF919F918F917F916F91B9
:101730005F914F913F912F910F900FBE0F901F908F
:1017400018951092510481E0809353041092540430
:1017500082E161E00E94201183E161E00E9420119A
:10176000E9EBF0E080818E7F808380818D7F8083B4
:1017700088E48093B80085E48093BC0008951F92AC
:101780000F920FB60F9211242F933F934F935F93B5
:101790006F937F938F939F93AF93BF93EF93FF9339
:1017A000E091C304F091C4040995FF91EF91BF91BA
:1017B000AF919F918F917F916F915F914F913F91E9
:1017C0002F910F900FBE0F901F901895FC01A3E072
:1017D000440F551F661F771FAA95D1F7403080E050
:1017E000580781E0680780E0780714F481E010C0B2
:1017F00033E075956795579547953A95D1F7403001
:1018000080E0580781E0680780E078071CF482E0F8
:10181000828339C023E075956795579547952A953A
:10182000D1F7403080E0580781E0680780E0780712
:1018300014F483E0EDCF92E0759567955795479541
:101840009A95D1F7403080E0580781E0680780E042
:10185000780714F484E0DCCF82E07595679557959E
:1018600047958A95D1F7403080E0580781E06807B6
:1018700080E0780714F485E0CBCF85E082834FEFDA
:101880005FEF60E070E08FB78383F894518340830B
:10189000509387004093860083818FBF80918100A1
:1018A000887F80938100809181009281892B809331
:1018B000810008951092800020E1209381000E9411
:1018C000E60B08950F931F93CF93DF93EC018B01E9
:1018D000121613061406150624F4BA01A9010E9473
:1018E000E60B1D830C8381E080936F008091810063
:1018F0009A81892B80938100DF91CF911F910F9165
:101900000895FC0112828FEF818310821382089563
:10191000FC018381882331F0662319F48FEF8183E2
:10192000089511820895CF93DF93EC018B81882372
:1019300019F480E090E013C0898180958623888324
:1019400085E494E06A810E94720885E494E06881ED
:101950000E94F40885E494E00E94370990E020E0BA
:1019600030E0892B11F421E030E0C901DF91CF9103
:101970000895CF93DF93EC016A8385E494E00E949D
:101980004C0985E494E06A8141E00E9448091B8289
:10199000882311F081E08B8385E494E00E94850820
:1019A00088838B8190E0DF91CF9108950895089509
:1019B000FC011382128284E093E091838083089576
:1019C000FC01A081B18118962D913C9119976FEF80
:1019D000F90109950895DC01ED91FC910284F385EC
:1019E000E02D40E009950895FC016581862F846013
:1019F00085836C60CF010E94EB0C0895DC01179683
:101A00009C911797491710F0492F415018968C91C7
:101A10001897803139F4943029F4E42FF0E0E05F36
:101A2000FC4F04C0E42FF0E0EC5EFC4F8081680FB7
:101A30006068CD010E94EB0C0895DC01ED91FC91F2
:101A40000284F385E02D41E0099581E090E008955E
:101A500061E00E94EB0C80ED97E00E94B20F0895C8
:101A6000CF93DF93EC01423018F08C8188608C8337
:101A70004F836887222329F0413019F48C818460D8
:101A80008C8364E670E080E090E00E94F70F6C8148
:101A900064FD31C0E881F9810284F385E02DCE0137
:101AA00063E042E0099584E991E10E94B20FE88188
:101AB000F9810284F385E02DCE0163E042E00995CF
:101AC00084E991E10E94B20FE881F9810284F385F3
:101AD000E02DCE0163E042E0099586E990E00E94A6
:101AE000B20FE881F9810284F385E02DCE0162E036
:101AF00042E0099516C06062CE010E94EB0C84E9B9
:101B000091E10E94B20F6C816062CE010E94EB0CE9
:101B100086E990E00E94B20F6C816062CE010E9463
:101B2000EB0C6C816062CE010E94EB0C84E08D8333
:101B3000CE010E94F40CCE010E94280D82E08E831B
:101B4000CE0166E00E94EB0CCE010E94E00CDF911A
:101B5000CF910895DC0181E090E002C0880F991FC9
:101B60006A95E2F71C968C931C971A965C934E9399
:101B70001997ED91FC9111970084F185E02DCD012D
:101B800060E009950895DF92EF92FF920F931F9303
:101B90008C01D62E8EE0E82EF12CE00EF11EF8011D
:101BA00062896D29C7010E94930CF80162896095D2
:101BB0006D21C7010E94930C1F910F91FF90EF9030
:101BC000DF900895DC01FC0120E090E070E060FF10
:101BD00002C08589282B9F5F3196943019F0759546
:101BE0006795F4CF413019F454964C9154971D9653
:101BF0008C911D97842B282BCD01622F0E94C30D41
:101C000008950F931F93CF93DF93EC01142F062FAA
:101C10000F70423019F4602F40E00CC070E044E0D7
:101C2000759567954A95E1F7412F0E94E20DCE0127
:101C3000602F412F0E94E20DDF91CF911F910F91F4
:101C40000895FC012485222399F0818592850097CF
:101C500019F4662329F406C0019721F4662311F4D0
:101C6000258701C01586CF010E9665850E94930CCD
:101C700008950F931F93CF93DF938C01EC012E9661
:101C8000CE01F80163850E94B90C019719F020E09C
:101C900030E00CC0CE0161E00E94880CF801148293
:101CA000CE0160E00E94930C21E030E0C901DF9199
:101CB000CF911F910F910895DF92EF92FF920F93B2
:101CC0001F938C01F62EE42ED22E0E94390EC801ED
:101CD0006F2D4E2D2D2D0E94300D1F910F91FF90D5
:101CE000EF90DF9008952F923F924F925F926F9204
:101CF0007F928F929F92AF92BF92CF92DF92EF929C
:101D0000FF920F931F93DF93CF93CDB7DEB73C01C4
:101D1000962E442E222E0E94D80C8CE193E0F301E3
:101D200091838083C3010E960E94810CF3019386F8
:101D3000148615861286118681E090E09C0102C00F
:101D4000220F331F4A94E2F7228BFC0102C0EE0FF0
:101D5000FF1F2A94E2F71F01F301238A9C0102C0AE
:101D6000220F331F0A95E2F7248BFC0102C0EE0F0D
:101D7000FF1FEA94E2F77F01F301E58A9C0102C0AC
:101D8000220F331FCA94E2F7268BFC0102C0EE0F2C
:101D9000FF1FAA94E2F75F01F301A78A02C0880F30
:101DA000991F8A94E2F7808FC3016D894E895F89FC
:101DB0000E94AA0DCF91DF911F910F91FF90EF909C
:101DC000DF90CF90BF90AF909F908F907F906F905B
:101DD0005F904F903F902F900895823000F5E82F4C
:101DE000F0E0EE0FFF1FEB53FB4F718360838823FE
:101DF00019F08130A1F408C0809169008C7F842B98
:101E000080936900E89A089580916900440F551FF6
:101E1000440F551F837F842B80936900E99A0895AE
:101E20001F920F920FB60F9211242F933F934F934F
:101E30005F936F937F938F939F93AF93BF93EF9332
:101E4000FF938091C5049091C604892B29F0E091FD
:101E5000C504F091C6040995FF91EF91BF91AF9130
:101E60009F918F917F916F915F914F913F912F91B2
:101E70000F900FBE0F901F9018951F920F920FB6E4
:101E80000F9211242F933F934F935F936F937F9300
:101E90008F939F93AF93BF93EF93FF938091C7046A
:101EA0009091C804892B29F0E091C704F091C804EF
:101EB0000995FF91EF91BF91AF919F918F917F9184
:101EC0006F915F914F913F912F910F900FBE0F90A7
:101ED0001F9018951F920F920FB60F9211242F93F7
:101EE0003F938F939F93AF93BF938091CD04909135
:101EF000CE04A091CF04B091D0043091D1040196CA
:101F0000A11DB11D232F2D5F2D3720F02D570196D8
:101F1000A11DB11D2093D1048093CD049093CE04D4
:101F2000A093CF04B093D0048091C9049091CA04C7
:101F3000A091CB04B091CC040196A11DB11D80935A
:101F4000C9049093CA04A093CB04B093CC04BF916E
:101F5000AF919F918F913F912F910F900FBE0F9056
:101F60001F901895019739F0880F991F880F991FB6
:101F700002970197F1F70895789484B5826084BD43
:101F800084B5816084BD85B5826085BD85B581607D
:101F900085BDEEE6F0E0808181608083E1E8F0E0DD
:101FA0001082808182608083808181608083E0E80C
:101FB000F0E0808181608083E1EBF0E080818460EB
:101FC0008083E0EBF0E0808181608083EAE7F0E0ED
:101FD0008081846080838081826080838081816051
:101FE00080838081806880831092C1000895EF9281
:101FF000FF920F931F93CF93DF937B018C013FB729
:10200000F8948091C9049091CA04A091CB04B09136
:10201000CC0426B5A89B05C02F3F19F00196A11D41
:10202000B11D3FBFBA2FA92F982F8827820F911D6E
:10203000A11DB11D52E0880F991FAA1FBB1F5A9501
:10204000D1F7EC0130C00E943D153FB7F894809164
:10205000C9049091CA04A091CB04B091CC0426B5D8
:10206000A89B05C02F3F19F00196A11DB11D3FBFD0
:10207000BA2FA92F982F8827820F911DA11DB11D5E
:1020800032E0880F991FAA1FBB1F3A95D1F78C1B0E
:102090009D0B885E9340B8F20894E108F1080109AD
:1020A0001109C851DC4FE114F1040105110559F67D
:1020B000DF91CF911F910F91FF90EF900895982F8E
:1020C0008E3008F09E5097708091EF028295880FB5
:1020D000880F807C892B80937C0080917A008064BB
:1020E00080937A0080917A0086FDFCCF2091780061
:1020F00040917900942F80E030E0282B392BC901E2
:1021000008951F93CF93DF93182FEB0161E00E9496
:10211000E110209709F44AC0CF3FD10509F449C026
:10212000E12FF0E0E255FF4F84918330C1F084301D
:1021300028F4813051F08230B1F50CC0863019F1AD
:10214000873049F1843079F514C084B5806884BD46
:10215000C7BD33C084B5806284BDC8BD2EC0809128
:102160008000806880938000D0938900C0938800AD
:1021700024C080918000806280938000D0938B0087
:10218000C0938A001AC08091B00080688093B0002C
:10219000C093B30012C08091B00080628093B00001
:1021A000C093B4000AC0C038D1051CF4812F60E090
:1021B00002C0812F61E00E942011DF91CF911F9119
:1021C0000895CF93DF93482F50E0CA0186569F4F62
:1021D000FC0134914A575F4FFA018491882369F1D9
:1021E00090E0880F991FFC01E859FF4FA591B49129
:1021F000FC01EE58FF4FC591D491662351F42FB7DF
:10220000F8948C91932F909589238C9388818923BE
:102210000BC0623061F42FB7F8948C91932F909596
:1022200089238C938881832B88832FBF06C09FB717
:10223000F8948C91832B8C939FBFDF91CF9108955D
:10224000482F50E0CA0182559F4FFC012491CA01DA
:1022500086569F4FFC0194914A575F4FFA01349183
:10226000332309F440C0222351F1233071F024308C
:1022700028F42130A1F0223011F514C02630B1F03D
:102280002730C1F02430D9F404C0809180008F77CA
:1022900003C0809180008F7D8093800010C084B542
:1022A0008F7702C084B58F7D84BD09C08091B00056
:1022B0008F7703C08091B0008F7D8093B000E32FB3
:1022C000F0E0EE0FFF1FEE58FF4FA591B4912FB72E
:1022D000F894662321F48C919095892302C08C9107
:1022E000892B8C932FBF0895682F70E0CB01825506
:1022F0009F4FFC012491CB0186569F4FFC014491D6
:102300006A577F4FFB019491992319F420E030E044
:102310003CC0222351F1233071F0243028F42130C5
:10232000A1F0223011F514C02630B1F02730C1F0F1
:102330002430D9F404C0809180008F7703C080914D
:1023400080008F7D8093800010C084B58F7702C09D
:1023500084B58F7D84BD09C08091B0008F7703C0A4
:102360008091B0008F7D8093B000892F90E0880F1E
:10237000991F84589F4FFC01A591B4918C9120E046
:1023800030E0842311F021E030E0C9010895DC0140
:102390005C968C915C97FD01E80FF11DE35AFF4FAD
:1023A00020815C968C915C9790E001968F73907081
:1023B0005C968C935C975696ED91FC915797208391
:1023C0005096ED91FC9151978081806480835B965B
:1023D0009C915B975C968C915C97981739F4529618
:1023E000ED91FC91539780818F7D80830895DF92DA
:1023F000EF92FF920F931F93CF93DF93EC017A013B
:102400008B01D22EE889F98982E08083403081EE09
:10241000580780E0680780E07807A1F060E079E085
:102420008DE390E0A80197010E945F172150304092
:1024300040405040569547953795279580E120308C
:10244000380798F0E889F989108260E874E88EE12D
:1024500090E0A80197010E945F1721503040404052
:1024600050405695479537952795EC85FD853083E7
:10247000EE85FF852083188EEC89FD89D082EA895C
:10248000FB89808180618083EA89FB898081886003
:102490008083EA89FB89808180688083EA89FB895F
:1024A00080818F7D8083DF91CF911F910F91FF906D
:1024B000EF90DF900895FC01818D228D90E0805C8B
:1024C0009F4F821B910960E470E00E944C170895B1
:1024D000FC01918D828D981719F42FEF3FEF06C004
:1024E000828DE80FF11D858D282F30E0C9010895F8
:1024F000DC0159969C9159975A968C915A97981746
:1025000019F42FEF3FEF10C05A968C915A97FD01A6
:10251000E80FF11D958D5A968C915A978F5F8F73A6
:102520005A968C93292F30E0C9010895CF93DF93F9
:10253000EC01888D882361F419C08C9185FF0AC055
:10254000E889F989808185FF05C0CE010E94C71105
:10255000AA89BB898C9185FD05C0E889F9898081AC
:1025600086FD04C00FB607FEE8CFF4CFDF91CF9110
:1025700008950F931F93CF93DF93EC01062F9B8D4C
:102580008C8D981791F5E889F989808185FF2DC098
:10259000EE89FF896083E889F9898081806480837E
:1025A0001DC00FB607FC08C0E889F989808185FF46
:1025B00003C0CE010E94C7118C8D181791F38B8D2B
:1025C000FE01E80FF11DE35AFF4F00831B8FEA89DC
:1025D000FB8980818062808381E0888F81E090E048
:1025E000DF91CF911F910F9108951B8D1F5F1F7376
:1025F000E3CF81E893E1892B51F080E090E0892BD3
:1026000031F00E948113882311F00E940000089588
:102610001F920F920FB60F9211242F938F939F93B7
:10262000EF93FF93E091E204F091E304808182FD57
:1026300016C0E091E804F091E90420819091EB0448
:102640009F5F9F738091EC04981771F0E091EB0409
:10265000F0E0EE52FB4F258F9093EB0405C0E09124
:10266000E804F091E904E081FF91EF919F918F914F
:102670002F910F900FBE0F901F9018951092D504B8
:102680001092D40488EE93E0A0E0B0E08093D604EA
:102690009093D704A093D804B093D9048CE293E02C
:1026A0009093D3048093D20485EC90E09093DF0460
:1026B0008093DE0484EC90E09093E1048093E00446
:1026C00080EC90E09093E3048093E20481EC90E04E
:1026D0009093E5048093E40482EC90E09093E70407
:1026E0008093E60486EC90E09093E9048093E804FC
:1026F0001092EB041092EC041092ED041092EE0490
:10270000089582ED94E00E945B1220E0892B09F08D
:1027100021E0822F08951F920F920FB60F9211247D
:102720002F933F934F935F936F937F938F939F93D9
:10273000AF93BF93EF93FF9382ED94E00E94C71194
:10274000FF91EF91BF91AF919F918F917F916F9189
:102750005F914F913F912F910F900FBE0F901F905F
:102760001895CF93DF930E94BC0F0E94C606C9EF55
:10277000D2E10E9484042097E1F30E94F912F9CF7C
:102780000895CF92DF92EF92FF920F931F93CF9312
:10279000DF937C016B018A01C0E0D0E00FC0D6015D
:1027A0006D916D01D701ED91FC910190F081E02DCB
:1027B000C7010995C80FD91F015010400115110517
:1027C00071F7CE01DF91CF911F910F91FF90EF90A4
:1027D000DF90CF900895EF92FF920F931F938C019B
:1027E000DC01ED91FC910190F081E02D6DE0099507
:1027F0007C01D801ED91FC910190F081E02DC801A0
:102800006AE009959C012E0D3F1DC9011F910F9192
:10281000FF90EF900895CF93DF93EC016115710560
:1028200019F420E030E00FC0DB010D900020E9F743
:102830001197A61BB70BE881F9810280F381E02D87
:10284000AD0109959C01C901DF91CF9108954F9287
:102850005F927F928F929F92AF92BF92CF92DF92C0
:10286000EF92FF920F931F93DF93CF93CDB7DEB715
:10287000A1970FB6F894DEBF0FBECDBF2C01742E0A
:10288000CB01223008F42AE019A231E2C32ED12C68
:10289000CC0EDD1E822E9924AA24BB24672D752F11
:1028A000A50194010E945F1779018A01C801B7014F
:1028B000A50194010E942D17472D461B0894C108BD
:1028C000D1084A3014F4405D01C0495CF6014083F0
:1028D000E114F1040105110521F07E2C5F2DC801E2
:1028E000DDCFC201B6010E940B14A1960FB6F89479
:1028F000DEBF0FBECDBFCF91DF911F910F91FF9033
:10290000EF90DF90CF90BF90AF909F908F907F908F
:102910005F904F900895CF92DF92EF92FF920F93C6
:102920001F93CF93DF93EC016A017B0121153105E1
:1029300041F4E881F9810190F081E02D642F09953F
:102940001FC02A303105D1F477FF17C0E881F98123
:102950000190F081E02D6DE209958C014427552707
:10296000BA014C195D096E097F09CE012AE00E9467
:1029700027149801280F391F04C02AE00E94271449
:102980009C01C901DF91CF911F910F91FF90EF90B2
:10299000DF90CF900895EF92FF920F931F937B01EA
:1029A0009A010027F7FC0095102FB801A7010E949B
:1029B0008B141F910F91FF90EF9008950E940B14BC
:1029C0000895EF92FF920F931F937C010E940B14C6
:1029D0008C01C7010E94EB13080F191FC8011F913A
:1029E0000F91FF90EF9008952F923F924F925F9238
:1029F0006F927F928F929F92AF92BF92CF92DF920F
:102A0000EF92FF920F931F93DF93CF93CDB7DEB773
:102A10003B014C0119012A016D897E898F89988DAE
:102A20006A197B098C099D09621A730A840A950A3E
:102A3000A40193010E942D17E218F3080409150957
:102A4000A80197010E9481172A0D3B1D4C1D5D1D99
:102A5000B901CA01CF91DF911F910F91FF90EF90C3
:102A6000DF90CF90BF90AF909F908F907F906F90AE
:102A70005F904F903F902F90089508955058BB2736
:102A8000AA270ED04DC13ED130F043D120F031F411
:102A90009F3F11F41EF433C10EF4E095E7FB29C10A
:102AA000E92F4FD180F3BA176207730784079507A0
:102AB00018F071F49EF567C10EF4E0950B2EBA2F55
:102AC000A02D0B01B90190010C01CA01A001112434
:102AD000FF27591B99F0593F50F4503E68F11A16E0
:102AE000F040A22F232F342F4427585FF3CF469571
:102AF00037952795A795F0405395C9F77EF41F1693
:102B0000BA0B620B730B840BBAF09150A1F0FF0F5C
:102B1000BB1F661F771F881FC2F70EC0BA0F621F48
:102B2000731F841F48F4879577956795B795F79538
:102B30009E3F08F0B3CF9395880F08F09927EE0FCA
:102B40009795879508950CD0EBC0E3D040F0DAD08C
:102B500030F021F45F3F19F0CCC0511115C1CFC046
:102B6000F0D098F39923C9F35523B1F3951B550B76
:102B7000BB27AA2762177307840738F09F5F5F4F50
:102B8000220F331F441FAA1FA9F333D00E2E3AF091
:102B9000E0E830D091505040E695001CCAF729D0AB
:102BA000FE2F27D0660F771F881FBB1F26173707FA
:102BB0004807AB07B0E809F0BB0B802DBF01FF272A
:102BC00093585F4F2AF09E3F510568F092C0DCC0D9
:102BD0005F3FECF3983EDCF3869577956795B79564
:102BE000F7959F5FC9F7880F911D9695879597F97F
:102BF0000895E1E0660F771F881FBB1F62177307F8
:102C00008407BA0720F0621B730B840BBA0BEE1F0C
:102C100088F7E095089504D06894B111B5C008957F
:102C200098D088F09F5790F0B92F9927B751A0F00E
:102C3000D1F0660F771F881F991F1AF0BA95C9F750
:102C400012C0B13081F09FD0B1E008959CC0672FD1
:102C5000782F8827B85F39F0B93FCCF38695779500
:102C60006795B395D9F73EF49095809570956195E9
:102C70007F4F8F4F9F4F0895E89409C097FB3EF414
:102C800090958095709561957F4F8F4F9F4F9923B9
:102C9000A9F0F92F96E9BB279395F6958795779537
:102CA0006795B795F111F8CFFAF4BB0F11F460FFF7
:102CB0001BC06F5F7F4F8F4F9F4F16C0882311F04F
:102CC00096E911C0772321F09EE8872F762F05C063
:102CD000662371F096E8862F70E060E02AF09A95FE
:102CE000660F771F881FDAF7880F9695879597F9F3
:102CF000089597F99F6780E870E060E008959FEF7E
:102D000080EC089500240A94161617061806090682
:102D1000089500240A941216130614060506089551
:102D2000092E0394000C11F4882352F0BB0F40F4D9
:102D3000BF2B11F460FF04C06F5F7F4F8F4F9F4F19
:102D4000089557FD9058440F551F59F05F3F71F09B
:102D50004795880F97FB991F61F09F3F79F0879502
:102D60000895121613061406551FF2CF4695F1DF8B
:102D700008C0161617061806991FF1CF869571051B
:102D8000610508940895E894BB2766277727CB014F
:102D900097F908950BD0C4CFB5DF28F0BADF18F04B
:102DA000952309F0A6CFABCF1124EECFCADFA0F355
:102DB000959FD1F3950F50E0551F629FF001729FD0
:102DC000BB27F00DB11D639FAA27F00DB11DAA1FEF
:102DD000649F6627B00DA11D661F829F2227B00D3C
:102DE000A11D621F739FB00DA11D621F839FA00DC7
:102DF000611D221F749F3327A00D611D231F849F17
:102E0000600D211D822F762F6A2F11249F5750406D
:102E10008AF0E1F088234AF0EE0FFF1FBB1F661F08
:102E2000771F881F91505040A9F79E3F510570F0C1
:102E300060CFAACF5F3FECF3983EDCF386957795A1
:102E40006795B795F795E7959F5FC1F7FE2B880FBC
:102E5000911D9695879597F90895629FD001739F6C
:102E6000F001829FE00DF11D649FE00DF11D929F26
:102E7000F00D839FF00D749FF00D659FF00D992765
:102E8000729FB00DE11DF91F639FB00DE11DF91F89
:102E9000BD01CF011124089597FB092E07260AD002
:102EA00077FD04D049D006D000201AF470956195C2
:102EB0007F4F0895F6F7909581959F4F0895A1E271
:102EC0001A2EAA1BBB1BFD010DC0AA1FBB1FEE1FA4
:102ED000FF1FA217B307E407F50720F0A21BB30BEF
:102EE000E40BF50B661F771F881F991F1A9469F76B
:102EF00060957095809590959B01AC01BD01CF01C7
:102F0000089597FB092E05260ED057FD04D0D7DF74
:102F10000AD0001C38F450954095309521953F4FCC
:102F20004F4F5F4F0895F6F7909580957095619596
:102F30007F4F8F4F9F4F0895AA1BBB1B51E107C0C6
:102F4000AA1FBB1FA617B70710F0A61BB70B881F39
:102F5000991F5A95A9F780959095BC01CD010895C8
:102F6000EE0FFF1F0590F491E02D09942F923F92F0
:102F70004F925F926F927F928F929F92AF92BF9289
:102F8000CF92DF92EF92FF920F931F93CF93DF9335
:102F9000CDB7DEB7CA1BDB0B0FB6F894DEBF0FBE92
:102FA000CDBF09942A88398848885F846E847D84DF
:102FB0008C849B84AA84B984C884DF80EE80FD80E1
:102FC0000C811B81AA81B981CE0FD11D0FB6F89457
:0E2FD000DEBF0FBECDBFED010895F894FFCF18
:102FDE005620426F6172647370616E6E756E67001B
:102FEE0020202020202020202020202020202000F3
:102FFE00432057617373657274656D702E004320A4
:10300E00416E736175676C75667474656D702E00B4
:10301E00432041757373656E74656D702E00432089
:10302E00496E6E656E74656D702E00426172200081
:10303E006C647275636B004320006C74656D706513
:10304E007261747572002D2D2D2D2D2D2D2D2D2D82
:10305E002D2D2D2D2D2D2D2D2D2D2D2D2D2D2D2D92
:10306E002D2D2D2D2D2D2D2D2D2D2D2D2D2D2D2D82
:10307E002D2D2D2D2D2D2D2D2D2D00486F6E647582
:10308E00696E6F206275696C642062792053706975
:10309E007466697265585000486F6E6475696E6F1C
:1030AE0040537069746669726558502E64650048A5
:1030BE006F6E6475696E6F2056657273696F6E20E0
:1030CE00312E32002043204175C39F656E74656DAD
:1030DE007065726174757200204320496E6E656E64
:1030EE0074656D70657261747572002043204BC3F8
:1030FE00BC686C77617373657274656D70657261AF
:10310E0074757200204320416E73646175676C752F
:10311E00667474656D7065726174757200204320FB
:10312E00C3966C74656D7065726174757200204221
:10313E00617220C3966C647275636B002053636872
:10314E00616C74736175676272C3BC636B650020DA
:10315E0056544543003B20002048656C6C69676BF4
:10316E006569740020566F6C740023232323232378
:10317E002323232323232323232323232323002334
:10318E002020203C3C486F6E6475696E6F3E3E2079
:10319E0020202300232020202020205665727369D2
:1031AE006F6E20312E322023000E000F0010001102
:1031BE00000D000C0002000B0001000100010001D7
:1031CE0000000000F408C3087C0885089A08AB08C4
:1031DE00000000001D0DC113300DD60CD70CC0130E
:1031EE000040105000401454000000001D0DC1138B
:1031FE005C0EAA0D210E010E00000000B912C113C3
:08320E005B127812681296129F
:00000001FF
