:100000000C94E1000C94570F0C94840F0C9409018C
:100010000C9409010C9409010C9409010C94090138
:100020000C9409010C9409010C9409010C94090128
:100030000C9409010C94060C0C9409010C94090110
:100040000C94B10F0C9409010C944F130C94D2131F
:100050000C9409010C9409010C9409010C940901F8
:100060000C94570A0C94090100000000240027009A
:100070002A0000000000250028002B0000000000DE
:1000800023002600290004040404040404040202DA
:100090000202020203030303030301020408102007
:1000A0004080010204081020010204081020000012
:1000B0000007000201000003040600000000000029
:1000C000000000407A10F35A00A0724E1809001088
:1000D000A5D4E80000E87648170000E40B540200BD
:1000E00000CA9A3B000000E1F505000080969800E8
:1000F000000040420F000000A08601000000102711
:1001000000000000E80300000000640000000000A0
:100110000A00000000000100000000002C76D888D2
:10012000DC674F0823DFC1DFAE59E1B1B796E5E3E5
:10013000E453C63AE651997696E8E6C28426EB89FE
:100140008C9B62ED407C6FFCEFBC9C9F40F2BAA59B
:100150006FA5F490055A2AF75C936B6CF9676DC133
:100160001BFCE0E40D47FEF520E6B500D0ED902E37
:100170000300943577050080841E080000204E0A95
:10018000000000C80C333333330F986E12831141D3
:10019000EF8D2114893BE65516CFFEE6DB18D1849E
:1001A0004B381BF77C1D901DA4BBE42420328472C5
:1001B0005E228100C9F124ECA1E53D277E03F3080E
:1001C000851311241FBECFEFD8E0DEBFCDBF13E0F3
:1001D000A0E0B1E0ECE6F0E302C005900D92A63598
:1001E000B107D9F715E0A6E5B3E001C01D92AD381F
:1001F000B107E1F711E0C2ECD1E004C02297FE01A3
:100200000E94F917CC3BD107C9F70E94F8130C9450
:1002100034180C940000EF92FF920F931F93F22F6B
:10022000F02E47FD02C0E4E001C0E4E1242F3327B3
:1002300027FD309537FF03C0309521953F4F4F2D57
:10024000512F0F2FEE2E0E942C018F2D912F1F91D9
:100250000F91FF90EF900895A9E0B0E0E2E3F1E0A4
:100260000C9401186A01122FA02EBE2C2BE320172C
:1002700018F42CE3922E02C0902E9394AE014F5F9F
:100280005F4F27E0092D0E948E02BC018981E82E74
:10029000FF24C70189709070019711F4ADE209C085
:1002A000B1FE02C0ABE205C0B0FC02C0A0E001C0DC
:1002B000A0E2E3FE3BC0AA2311F423E001C024E046
:1002C000211710F020E002C0121B212FEB2CB4FEEE
:1002D00002C0322F0AC0F601322F80E202C08193A1
:1002E00031503323E1F7C20ED11CAA2319F0F601D5
:1002F000A1936F01F6013196E2FE05C09EE4D6019E
:100300009C9381E404C09EE6D6019C9381E61196FD
:100310008C9391833296DF01832F90E202C09D93EC
:1003200081508823E1F7E30FF11D40C0E2FE42C097
:10033000AA2311F423E001C024E0211710F020E0EB
:1003400002C0121B212FEB2CB4FE02C0922F0AC058
:10035000F601922F80E202C0819391509923E1F738
:10036000C20ED11CAA2319F0F601A1936F01F60168
:100370003196E2FE08C089E4D6018C938EE4119692
:100380008C9386E407C089E6D6018C938EE611969D
:100390008C9386E681833296DF01892F20E202C0AA
:1003A0002D9381508823E1F7E90FF11D10822EEF84
:1003B0003FEFAFC0161617061CF041E050E003C037
:1003C000AB014F5F5F4FAA2019F480E090E003C0BB
:1003D0008A2D90E0019620E030E0AA2311F021E080
:1003E00030E0240F351F280F391F812F90E0281788
:1003F000390714F020E002C0121B212F4B2D50E0D2
:10040000CA0180719070B4FC0DC0B3FC0BC0F60142
:10041000322F40E202C0419331503323E1F7C20E44
:10042000D11C01C0322FAA2319F0F601A1936F014C
:10043000892B11F0132F0AC0F601132F80E302C09D
:10044000819311501123E1F7C30ED11C092D060F22
:10045000BA8090E1892E912C8E209F20E4FE04C06A
:10046000F1E3BF1609F40150101614F001E003C0C7
:10047000093008F008E09B0177FF02C020E030E07F
:10048000CB010196821B930BFE013196E80FF91FF9
:100490008EE2F82E3B01601A71088A2D90E0442705
:1004A0005527481B590B8FEF2F3F380719F4D601FA
:1004B000FD926D01621773072CF06216730614F437
:1004C000808101C080E321503040319624173507E8
:1004D00024F0D6018D936D01E6CF2617370749F436
:1004E000B5E3BB1528F0BB1621F48114910409F47F
:1004F00081E3F6018193D601812F90E202C09C93A3
:10050000815011968823D9F7E10FF11D108220E068
:1005100030E0C9012996EEE00C941D18283008F04F
:1005200027E03327DA01990F311D87FD916000968E
:100530006105710539F432602E5F3D9330E32A95F1
:10054000E1F708959F3F30F080387105610509F0AB
:100550003C5F3C5F3D93913008F08068911DDF93D4
:10056000CF931F930F93FF92EF92192F987F969539
:10057000E92F96959695E90FFF27E45EFE4F9927A0
:100580003327EE24FF24A701E70105900894079480
:1005900028F4360FE71EF81E491F511D660F771FFE
:1005A000881F991F0694A1F70590079428F4E70E79
:1005B000F81E491F561FC11D770F881F991F661F00
:1005C0000694A1F70590079428F4F80E491F561FCA
:1005D000C71FD11D880F991F661F771F0694A1F7AB
:1005E0000590079420F4490F561FC71FD81F990F75
:1005F000661F771F881F0694A9F7849110951770BE
:1006000041F0D695C79557954795F794E7941A9575
:10061000C1F7E2ECF0E06894159015913591659181
:10062000959105907FE27395E118F10A430B560B03
:10063000C90BD009C0F7E10CF11E431F561FC91F9B
:10064000D01D7EF4703311F48A95E6CFE894015002
:1006500030F0080F0AF40027021708F4202F239522
:10066000022F7A3328F079E37D932A95E9F710C0B9
:100670007D932A9589F606949795679537951795F2
:100680001794E118F10A430B560BC90BD00998F0E7
:1006900023957E9173957A3308F070E37C93201351
:1006A000B8F77E9170617D9330F0839571E37D930F
:1006B00070E32A95E1F71124EF90FF900F911F91BD
:1006C000CF91DF91992787FD9095089521E030E043
:1006D00030930B0320930A03809108039091090340
:1006E0008430910534F401969093090380930803B4
:1006F0000895309309032093080308958F92AF92D1
:10070000CF92EF920F9300D00F9283E0EDB7FEB738
:1007100081831382128286E593E067E242E021E062
:1007200000E0E4E0EE2E75E0C72E56E0A52E37E09F
:10073000832E0E94BA0E0F900F900F9089E793E0DE
:1007400060E070E045E050E00E94A50887E893E093
:1007500060E070E048E050E00E94A50885E993E081
:1007600060E070E046E050E00E94A50883EA93E074
:1007700060E070E047E050E00E94A5080F91EF9024
:10078000CF90AF908F9008951F9380911B0490910C
:100790001C04892B81F48091190490911A0401970B
:1007A00051F41091FE02812F0E94BB1161E0682775
:1007B000812F0E9467111F9108950F931F9306E5E3
:1007C00013E0C80160E040E00E94450DC80167EEFB
:1007D00073E00E942515C80160E071E00E942515B4
:1007E000C80160E042E00E94450DC80160E171E08F
:1007F0000E9425151F910F9108950F931F9306E5F1
:1008000013E0C80160E041E00E94450DC80161E2CB
:1008100071E00E942515C80160E042E00E94450D8C
:100820006091750370917603C8014AE050E00E9420
:100830001215C80161E371E00E942515C80160E04E
:1008400043E00E94450D6091770370917803C801E1
:100850004AE050E00E941215C8016FE371E00E9467
:1008600025151F910F910895EF92FF920F931F93FB
:1008700006E513E0C80162E040E00E94450DC801B2
:100880006EE471E00E942515C80163E041E00E941A
:10089000450D6091710370917203C8014AE050E008
:1008A0000E941215FFE5EF2EF1E0FF2EC801B701FF
:1008B0000E942515C80162E042E00E94450DC80172
:1008C00068E671E00E942515C80163E043E00E94DC
:1008D000450D6091730370917403C8014AE050E0C4
:1008E0000E941215C801B7010E9425151F910F9192
:1008F000FF90EF9008950F931F9306E513E0C80152
:1009000062E040E00E94450DC8016FEE0E94640D58
:10091000C80168E771E00E942515C80165E041E063
:100920000E94450DC80161EB73E00E942515C801C6
:100930006FE771E00E942515C80162E042E00E9465
:10094000450DC8016FEE0E94640DC80164E871E0B6
:100950000E942515C80165E043E00E94450D6091A5
:10096000E3037091E403C8014AE050E00E941215CD
:10097000C80160E971E00E9425151F910F9108954B
:100980008F929F92AF92BF92CF92DF92EF92FF929F
:100990000F931F93CF93DF938091FC020E94A610C8
:1009A000BC01843691051CF4C4E6D0E007C0EC011C
:1009B00082E06D3B780714F0CCEBD2E000D000D0A1
:1009C000BE01882777FD8095982F2EE130E040E02A
:1009D00050E0EDB7FEB721833283438354832CEB81
:1009E00032E040E050E0F4E6EF2EF12C012D112D25
:1009F000EFEFAE2EB12CC12CD12C0E943B159B01E8
:100A0000AC014B010F900F900F900F908091040359
:100A1000B9010E94C81080910A0390910B030197BD
:100A200041F486E593E00E946F0D10920B03109243
:100A30000A0380910803909109038230910579F0AF
:100A4000833091051CF4019791F406C08330910521
:100A500049F0049761F409C00E947B0408C00E9419
:100A6000340405C00E94DD0302C00E94FD0389E733
:100A700093E061E773E00E949B0780936F031092FD
:100A8000700387E893E063E773E00E949B0780931D
:100A90006F031092700385E993E065E773E00E94AD
:100AA0009B0780936F031092700383EA93E067E7DC
:100AB00073E00E949B0780936F03109270038091F4
:100AC000F6020E94A61000D000D0AA2797FDA0959C
:100AD000BA2F24E630E040E050E0EDB7FEB72183C6
:100AE000328343835483BC01CD0114E8E12E13E02B
:100AF000F12E012D112DAA24BB2465010E943B1566
:100B00000F900F900F900F90882777FD8095982F6A
:100B10000E94851620E030E040E251E40E94EA1590
:100B200042E021E001EB13E00E940B018091F8020A
:100B30000E94A6109093E4038093E30300D000D0BA
:100B4000AA2797FDA095BA2F26E930E040E050E0B3
:100B5000EDB7FEB72183328343835483BC01CD01BB
:100B600020E030E040E050E0BFEFEB2EB3E0FB2EA2
:100B7000012D112DACEEAA2EAFEFBA2EAFEFCA2E7B
:100B8000AFEFDA2E0E943B157093E4036093E3030A
:100B90000F900F900F900F908091FA020E94A61074
:100BA0009093E6038093E50300D000D0AA2797FD39
:100BB000A095BA2F2CED30E040E050E0EDB7FEB745
:100BC0002183328343835483BC01CD0120E030E094
:100BD00040E050E0AA24BB2465010E943B157093BD
:100BE000E6036093E5030F900F900F900F90882716
:100BF00077FD8095982F0E94851620E030E040E236
:100C000051E40E94EA1542E021E007EE13E00E9461
:100C10000B01809100030E94BB1190931A048093F2
:100C20001904809102030E94BB1190931C048093CD
:100C30001B04019751F48091190490911A04892B97
:100C400021F48091FE0261E003C08091FE0260E029
:100C50000E94671180EF94E063E971E00E9428151B
:100C600080EF94E068EC71E00E94281580EF94E03A
:100C700065EE71E00E94281580EF94E06CEF71E062
:100C80000E94281580EF94E063E971E00E94281526
:100C9000609171037091720380EF94E04AE050E03C
:100CA0000E94121580EF94E061E172E00E94281525
:100CB000609173037091740380EF94E04AE050E018
:100CC0000E94121580EF94E065E272E00E94281500
:100CD000609175037091760380EF94E04AE050E0F4
:100CE0000E94121580EF94E068E372E00E942815DC
:100CF000609177037091780380EF94E04AE050E0D0
:100D00000E94121580EF94E061E572E00E942815C0
:100D10006091E3037091E40380EF94E04AE050E0D7
:100D20000E94121580EF94E06AE672E00E94281596
:100D300080EF94E061EB73E00E94251580EF94E072
:100D40006BE772E00E942815609102037091030323
:100D500080EF94E04AE050E00E94121580EF94E0AA
:100D600069E872E00E942815609100037091010308
:100D700080EF94E04AE050E00E94121580EF94E08A
:100D80006CE972E00E9428156091FC027091FD02EE
:100D900080EF94E04AE050E00E94121580EF94E06A
:100DA00062EA72E00E94251580EF94E0BE014AE0FD
:100DB00050E00E94121580EF94E062EA72E00E9417
:100DC000251580EF94E0B4014AE050E00E9412152E
:100DD00080EF94E062EA72E00E94251580EF94E0D3
:100DE00065EA72E00E94281580EF94E067EE73E0F8
:100DF0000E94251580EF94E061EB72E00E942815B7
:100E0000DF91CF911F910F91FF90EF90DF90CF90E6
:100E1000BF90AF909F908F900895EF92FF920F93A5
:100E20001F938091040361E00E9428110DED14E0EE
:100E30006091060370910703882777FD8095982FAE
:100E400020EA36E841E050E00E947417AB01BC0193
:100E5000C8010E94A10CC80164EC73E02FEF3FEFC2
:100E60004FEF5FEF0E94A90C80EF94E040E855E25D
:100E700060E070E026E00E943E1206E513E0C80143
:100E800064E144E020E00E94A30E8091FE0261E054
:100E90000E9428118091000360E00E942811809137
:100EA000020360E00E94281181E066E673E042E000
:100EB00050E00E94340F8091FE0261E00E946711B1
:100EC000809104036FEF70E00E94C810C80160E0D9
:100ED00040E00E94450DA7EBEA2EA2E0FA2EC801E1
:100EE000B7010E942515C80160E041E00E94450D50
:100EF000C8016CEC72E00E942515C80160E042E078
:100F00000E94450DC80161EE72E00E942515C801DE
:100F100060E043E00E94450DC801B7010E9425151D
:100F200068EE73E080E090E00E943E101F910F9108
:100F3000FF90EF900895CF92DF92EF92FF920F9380
:100F40001F93CF93DF93EC016B01198618861B86E4
:100F50001A861D861C86888161E00E9467118CE3D9
:100F600090E00E94F90F8A810E94BB11892BD9F76A
:100F70008A810E94BB11892BD9F31F8238E0E32EAE
:100F8000F12C01E010E028C08A810E94BB11892B5E
:100F9000D9F78CE390E00E94F90F8A810E94BB117F
:100FA000892B91F08F819701281B3109C80102C05C
:100FB000880F991F2A95E2F79C0188859985822BD5
:100FC000932B9987888705C08A810E94BB11892B42
:100FD000D9F38F818F5F8F838F818930A8F28A81C7
:100FE0000E94BB11892BD9F78A810E94BB11892BE2
:100FF000D9F31F8228E0E22EF12C01E010E027C097
:101000008A810E94BB11892BD9F78CE390E00E9462
:10101000F90F8A810E94BB11892B89F08F8197017A
:10102000281B3109F80102C0EE0FFF1F2A95E2F7D5
:101030008A859B858E2B9F2B9B878A8705C08A81FB
:101040000E94BB11892BD9F38F818F5F8F838F8192
:101050008930B0F2888160E00E9467111E821F8291
:1010600041E050E013C09A0102C0220F331F8A955D
:10107000E2F7C9012885398582239323892B19F04A
:101080008E818F5F8E838F818F5F8F838F81893079
:1010900050F38E8180FD4FC01E821F8241E050E0E0
:1010A00013C0FA0102C0EE0FFF1F8A95E2F7CF01CD
:1010B0002A853B8582239323892B19F08E818F5FAC
:1010C0008E838F818F5F8F838F81893050F38E81E4
:1010D00080FD31C048855985569547955987488781
:1010E0002A853B85369527953B872A87742F60E0B4
:1010F000622B732B7D836C8380E090E00E948316CB
:1011000020E030EE4FEF54E40E94EA1520E030E09A
:1011100048E453E40E94111720E030E048E452E430
:101120000E9485150E9452167D876C87F601718397
:10113000608381E001C080E0DF91CF911F910F912A
:10114000FF90EF90DF90CF9008950F931F938C0145
:10115000862FF801608371835383428361E00E948C
:101160002811F801828160E00E9428111F910F91DF
:10117000089581E08093620460933F0410926004BC
:1011800010926104089520913E0430E080913D0466
:10119000281B3109C901089540913D0480913E0406
:1011A000481718F02FEF3FEF0AC0E42FF0E0E35E9E
:1011B000FB4F8081282F30E04F5F40933D04C901F1
:1011C0000895E0913D0480913E04E81718F0EFEF98
:1011D000FFEF06C0F0E0E35EFB4F8081E82FF0E018
:1011E000CF0108950895109266041092650488EE68
:1011F00093E0A0E0B0E08093670490936804A0932C
:101200006904B0936A0481E193E09093640480934D
:1012100063040895CF92DF92EF92FF920F931F9392
:10122000CF93DF937C016B018A0180916204882354
:10123000A1F0C0E0D0E00DC0D701ED91FC91D60146
:10124000AC0FBD1F0190F081E02DC7016C91099595
:101250002196C017D10780F304C0CB01642F0E94F0
:101260003C0AC801DF91CF911F910F91FF90EF9041
:10127000DF90CF900895DF93CF930F92CDB7DEB775
:10128000FC016983809162048823C9F08091610424
:10129000803238F081E090E09383828320E030E078
:1012A00015C080916004E82FF0E0E05CFB4F99816D
:1012B00090838F5F809360048093610405C0CE01AA
:1012C000019661E00E943C0A21E030E0C9010F90E4
:1012D000CF91DF9108950F93062F80913F0460E432
:1012E00074E04091610421E00E94E70910926004DB
:1012F00010926104109262040F91089561E00E94BF
:101300006B090895413208F040E2862F6DE174E0E8
:101310000E949E0910923D0480933E04089521E0AE
:101320000E948209089510923D0410923E0410928A
:101330006004109261040E94E80B0895382F413236
:1013400010F040E042C080916F048823E1F791E003
:1013500090936F04209371048FEF8093DC041092BC
:1013600097044150409398044F5F9093700480918C
:101370007004330F832B809370048091720481304A
:1013800041F410927204809170048093BB0085EC4C
:1013900001C085EE8093BC0080916F048130E1F341
:1013A00080919704841710F44091970420E030E076
:1013B0000AC0FB01E20FF31FD901A958BB4F8C9162
:1013C00080832F5F3F4F2417A0F3842F08950F933E
:1013D0001F93582F122F413210F081E04AC08091A4
:1013E0006F048823E1F782E080936F040093710417
:1013F0008FEF8093DC041092970440939804A7E742
:10140000B4E0FB0102C081918D938E2F861B84175F
:10141000D0F31092700480917004550F852B809347
:10142000700480917204813041F4109272048091B2
:1014300070048093BB0085EC01C085EE8093BC00F6
:10144000112321F080916F048230E1F38091DC045C
:101450008F3F11F480E00DC08091DC04803211F4E4
:1014600082E007C08091DC04803311F084E001C089
:1014700083E01F910F910895482F613210F081E0B1
:10148000089580916F04843011F082E00895609394
:10149000BA04A9E9B4E0842F9C01F90102C081914A
:1014A0008D938E2F841B8617D0F380E008951F92B2
:1014B0000F920FB60F9211242F933F934F935F9388
:1014C0006F937F938F939F93AF93BF93EF93FF930C
:1014D0008091B90090E0887F90708036910509F482
:1014E000F2C081369105CCF58832910509F47BC0B4
:1014F00089329105B4F48031910509F46FC08131CE
:1015000091053CF4009709F447C1089709F04FC1D1
:1015100065C08831910509F466C0809709F047C11C
:1015200082C08034910509F4A4C08134910544F44B
:101530008033910509F482C0C89709F038C189C089
:101540008035910509F489C08835910509F496C064
:101550008834910509F02BC1AEC08839910509F492
:1015600013C189399105ECF48837910509F4ABC0B2
:10157000893791054CF48836910509F4A4C0803769
:10158000910509F014C19FC08838910509F4FCC089
:101590008039910509F49DC08038910509F007C193
:1015A00098C0803B910509F4C6C0813B91054CF47D
:1015B000803A910509F49FC0883A910509F0F7C077
:1015C000BAC0803C910509F4E3C0883C910509F458
:1015D000DFC0883B910509F0EAC0C2C08091700469
:1015E0008093BB00CFC09091970480919804981786
:1015F00068F490919704E92FF0E0E958FB4F80815F
:101600008093BB009F5F90939704BCC0809171044E
:10161000882309F44BC085ED8093BC008091BC0009
:1016200084FDFCCFC2C080E28093DC0485ED809312
:10163000BC008091BC0084FDFCCFB7C080E38093E8
:10164000DC0485ED8093BC008091BC0084FDFCCF60
:10165000ACC088E38093DC049BC080919704909198
:10166000BB00E82FF0E0E958FB4F90838F5F809339
:101670009704909197048091980482C08091970478
:101680009091BB00E82FF0E0E958FB4F90838F5F0B
:101690008093970480917104882341F085ED8093B5
:1016A000BC008091BC0084FDFCCF7FC081E08093B2
:1016B000720484EA6EC085ED8093BC008091BC000A
:1016C00084FDFCCF72C083E080936F041092DB0432
:1016D00059C08091DB04803208F056C08091DB0451
:1016E0009091BB00E82FF0E0E554FB4F90838F5FB3
:1016F0008093DB0447C08091DB04803230F4E091BA
:10170000DB04F0E0E554FB4F108285ED8093BC00D4
:101710008091BC0084FDFCCF10926F046091DB04CB
:10172000E0917504F09176048BEB94E070E00995FC
:101730001092DB042DC084E080936F041092B904F2
:101740001092BA04E0917304F091740409958091A9
:10175000BA04882329F481E08093BA041092990492
:101760009091B904E92FF0E0E756FB4F8081809318
:10177000BB009F5F9093B9049091B9048091BA0423
:10178000981710F485EC01C085E88093BC000FC069
:1017900085EC8093BC0009C01092DC0485ED809339
:1017A000BC008091BC0084FDFCCF10926F04FF91BF
:1017B000EF91BF91AF919F918F917F916F915F91C9
:1017C0004F913F912F910F900FBE0F901F90189542
:1017D00010926F0481E0809371041092720482E190
:1017E00061E00E94671183E161E00E946711E9EB0B
:1017F000F0E080818E7F808380818D7F808388E48C
:101800008093B80085E48093BC0008951F920F92E6
:101810000FB60F9211242F933F934F935F936F93C3
:101820007F938F939F93AF93BF93EF93FF93E09139
:10183000E104F091E2040995FF91EF91BF91AF911E
:101840009F918F917F916F915F914F913F912F91D8
:101850000F900FBE0F901F901895FC01A3E0440F4E
:10186000551F661F771FAA95D1F7403080E05807B3
:1018700081E0680780E0780714F481E010C033E06D
:1018800075956795579547953A95D1F7403080E023
:10189000580781E0680780E078071CF482E08283C3
:1018A00039C023E075956795579547952A95D1F7E7
:1018B000403080E0580781E0680780E0780714F442
:1018C00083E0EDCF92E075956795579547959A958A
:1018D000D1F7403080E0580781E0680780E0780762
:1018E00014F484E0DCCF82E07595679557954795B1
:1018F0008A95D1F7403080E0580781E0680780E0A2
:10190000780714F485E0CBCF85E082834FEF5FEF5B
:1019100060E070E08FB78383F894518340835093E5
:1019200087004093860083818FBF80918100887FEC
:1019300080938100809181009281892B8093810026
:1019400008951092800020E1209381000E942D0CC8
:1019500008950F931F93CF93DF93EC018B01121621
:1019600013061406150624F4BA01A9010E942D0CD1
:101970001D830C8381E080936F00809181009A81A8
:10198000892B80938100DF91CF911F910F91089552
:10199000FC0112828FEF8183108213820895FC0173
:1019A0008381882331F0662319F48FEF81830895B2
:1019B00011820895CF93DF93EC018B81882319F472
:1019C00080E090E013C0898180958623888383E638
:1019D00094E06A810E94B90883E694E068810E94DD
:1019E0003B0983E694E00E947E0990E020E030E02D
:1019F000892B11F421E030E0C901DF91CF910895E6
:101A0000CF93DF93EC016A8383E694E00E9493090D
:101A100083E694E06A8141E00E948F091B8288235B
:101A200011F081E08B8383E694E00E94CC088883E8
:101A30008B8190E0DF91CF91089508950895FC0186
:101A40001382128281E293E0918380830895FC01E6
:101A5000A081B18118962D913C9119976FEFF901F2
:101A600009950895DC01ED91FC910284F385E02D48
:101A700040E009950895FC016581862F8460858387
:101A80006C60CF010E94320D0895DC0117969C9185
:101A90001797491710F0492F415018968C911897B5
:101AA000803139F4943029F4E42FF0E0E35DFC4F09
:101AB00004C0E42FF0E0EF5CFC4F8081680F6068A9
:101AC000CD010E94320D0895DC01ED91FC9102845C
:101AD000F385E02D41E0099581E090E0089561E013
:101AE0000E94320D80ED97E00E94F90F0895CF9388
:101AF000DF93EC01423018F08C8188608C834F8337
:101B00006887222329F0413019F48C8184608C830A
:101B100064E670E080E090E00E943E106C8164FD1D
:101B200031C0E881F9810284F385E02DCE0163E0C4
:101B300042E0099584E991E10E94F90FE881F98179
:101B40000284F385E02DCE0163E042E0099584E94B
:101B500091E10E94F90FE881F9810284F385E02D7B
:101B6000CE0163E042E0099586E990E00E94F90F1A
:101B7000E881F9810284F385E02DCE0162E042E044
:101B8000099516C06062CE010E94320D84E991E190
:101B90000E94F90F6C816062CE010E94320D86E9CD
:101BA00090E00E94F90F6C816062CE010E94320DBC
:101BB0006C816062CE010E94320D84E08D83CE0183
:101BC0000E943B0DCE010E946F0D82E08E83CE01FC
:101BD00066E00E94320DCE010E94270DDF91CF9169
:101BE0000895DC0181E090E002C0880F991F6A959A
:101BF000E2F71C968C931C971A965C934E93199758
:101C0000ED91FC9111970084F185E02DCD0160E00C
:101C100009950895DF92EF92FF920F931F938C0125
:101C2000D62E8EE0E82EF12CE00EF11EF80162892E
:101C30006D29C7010E94DA0CF801628960956D2157
:101C4000C7010E94DA0C1F910F91FF90EF90DF9077
:101C50000895DC01FC0120E090E070E060FF02C02C
:101C60008589282B9F5F3196943019F0759567957B
:101C7000F4CF413019F454964C9154971D968C91A1
:101C80001D97842B282BCD01622F0E940A0E0895E8
:101C90000F931F93CF93DF93EC01142F062F0F7038
:101CA000423019F4602F40E00CC070E044E07595BC
:101CB00067954A95E1F7412F0E94290ECE01602FCA
:101CC000412F0E94290EDF91CF911F910F9108950E
:101CD000FC012485222399F081859285009719F4CF
:101CE000662329F406C0019721F4662311F42587A1
:101CF00001C01586CF010E9665850E94DA0C089505
:101D00000F931F93CF93DF938C01EC012E96CE019E
:101D1000F80163850E94000D019719F020E030E082
:101D20000CC0CE0161E00E94CF0CF8011482CE01FC
:101D300060E00E94DA0C21E030E0C901DF91CF9130
:101D40001F910F910895DF92EF92FF920F931F93CF
:101D50008C01F62EE42ED22E0E94800EC8016F2D2B
:101D60004E2D2D2D0E94770D1F910F91FF90EF901A
:101D7000DF9008952F923F924F925F926F927F92E1
:101D80008F929F92AF92BF92CF92DF92EF92FF928B
:101D90000F931F93DF93CF93CDB7DEB73C01962E01
:101DA000442E222E0E941F0D89E393E0F3019183BC
:101DB0008083C3010E960E94C80CF301938614869B
:101DC00015861286118681E090E09C0102C0220FE8
:101DD000331F4A94E2F7228BFC0102C0EE0FFF1F73
:101DE0002A94E2F71F01F301238A9C0102C0220F0B
:101DF000331F0A95E2F7248BFC0102C0EE0FFF1F90
:101E0000EA94E2F77F01F301E58A9C0102C0220F08
:101E1000331FCA94E2F7268BFC0102C0EE0FFF1FAE
:101E2000AA94E2F75F01F301A78A02C0880F991F05
:101E30008A94E2F7808FC3016D894E895F890E9481
:101E4000F10DCF91DF911F910F91FF90EF90DF90F7
:101E5000CF90BF90AF909F908F907F906F905F904A
:101E60004F903F902F900895823000F5E82FF0E0DA
:101E7000EE0FFF1FED51FB4F71836083882319F034
:101E80008130A1F408C0809169008C7F842B8093FD
:101E90006900E89A089580916900440F551F440F26
:101EA000551F837F842B80936900E99A08951F92C0
:101EB0000F920FB60F9211242F933F934F935F937E
:101EC0006F937F938F939F93AF93BF93EF93FF9302
:101ED0008091E3049091E404892B29F0E091E304DC
:101EE000F091E4040995FF91EF91BF91AF919F911B
:101EF0008F917F916F915F914F913F912F910F90B3
:101F00000FBE0F901F9018951F920F920FB60F9251
:101F100011242F933F934F935F936F937F938F93EE
:101F20009F93AF93BF93EF93FF938091E5049091BC
:101F3000E604892B29F0E091E504F091E604099587
:101F4000FF91EF91BF91AF919F918F917F916F9191
:101F50005F914F913F912F910F900FBE0F901F9067
:101F600018951F920F920FB60F9211242F933F9343
:101F70008F939F93AF93BF938091EB049091EC0468
:101F8000A091ED04B091EE043091EF040196A11DF3
:101F9000B11D232F2D5F2D3720F02D570196A11D48
:101FA000B11D2093EF048093EB049093EC04A09375
:101FB000ED04B093EE048091E7049091E804A091C1
:101FC000E904B091EA040196A11DB11D8093E704D4
:101FD0009093E804A093E904B093EA04BF91AF9111
:101FE0009F918F913F912F910F900FBE0F901F9057
:101FF0001895019739F0880F991F880F991F02973C
:102000000197F1F70895789484B5826084BD84B512
:10201000816084BD85B5826085BD85B5816085BDE3
:10202000EEE6F0E0808181608083E1E8F0E01082FC
:10203000808182608083808181608083E0E8F0E03D
:10204000808181608083E1EBF0E080818460808327
:10205000E0EBF0E0808181608083EAE7F0E080815E
:1020600084608083808182608083808181608083BE
:102070008081806880831092C1000895EF92FF9262
:102080000F931F93CF93DF937B018C013FB7F8949D
:102090008091E7049091E804A091E904B091EA04EA
:1020A00026B5A89B05C02F3F19F00196A11DB11DB3
:1020B0003FBFBA2FA92F982F8827820F911DA11DEE
:1020C000B11D52E0880F991FAA1FBB1F5A95D1F767
:1020D000EC0130C00E9484153FB7F8948091E7046A
:1020E0009091E804A091E904B091EA0426B5A89B78
:1020F00005C02F3F19F00196A11DB11D3FBFBA2F9A
:10210000A92F982F8827820F911DA11DB11D32E0A4
:10211000880F991FAA1FBB1F3A95D1F78C1B9D0BE7
:10212000885E9340B8F20894E108F10801091109AA
:10213000C851DC4FE114F1040105110559F6DF9196
:10214000CF911F910F91FF90EF900895982F8E30AF
:1021500008F09E50977080910C038295880F880F2D
:10216000807C892B80937C0080917A0080648093AE
:102170007A0080917A0086FDFCCF20917800409112
:102180007900942F80E030E0282B392BC901089585
:102190001F93CF93DF93182FEB0161E00E9428116A
:1021A000209709F44AC0CF3FD10509F449C0E12F77
:1021B000F0E0E255FF4F84918330C1F0843028F481
:1021C000813051F08230B1F50CC0863019F1873082
:1021D00049F1843079F514C084B5806884BDC7BDE9
:1021E00033C084B5806284BDC8BD2EC0809180009C
:1021F000806880938000D0938900C093880024C0B9
:1022000080918000806280938000D0938B00C09387
:102210008A001AC08091B00080688093B000C0939B
:10222000B30012C08091B00080628093B000C09370
:10223000B4000AC0C038D1051CF4812F60E002C090
:10224000812F61E00E946711DF91CF911F91089566
:10225000CF93DF93482F50E0CA0186569F4FFC0171
:1022600034914A575F4FFA018491882369F190E0D5
:10227000880F991FFC01E859FF4FA591B491FC010B
:10228000EE58FF4FC591D491662351F42FB7F894BF
:102290008C91932F909589238C93888189230BC0EF
:1022A000623061F42FB7F8948C91932F9095892325
:1022B0008C938881832B88832FBF06C09FB7F894A7
:1022C0008C91832B8C939FBFDF91CF910895482FE2
:1022D00050E0CA0182559F4FFC012491CA018656E5
:1022E0009F4FFC0194914A575F4FFA013491332379
:1022F00009F440C0222351F1233071F0243028F436
:102300002130A1F0223011F514C02630B1F0273071
:10231000C1F02430D9F404C0809180008F7703C0CD
:10232000809180008F7D8093800010C084B58F776E
:1023300002C084B58F7D84BD09C08091B0008F77C5
:1023400003C08091B0008F7D8093B000E32FF0E058
:10235000EE0FFF1FEE58FF4FA591B4912FB7F894E1
:10236000662321F48C919095892302C08C91892B4E
:102370008C932FBF0895682F70E0CB0182559F4F3B
:10238000FC012491CB0186569F4FFC0144916A5772
:102390007F4FFB019491992319F420E030E03CC079
:1023A000222351F1233071F0243028F42130A1F0A0
:1023B000223011F514C02630B1F02730C1F024309E
:1023C000D9F404C0809180008F7703C08091800091
:1023D0008F7D8093800010C084B58F7702C084B554
:1023E0008F7D84BD09C08091B0008F7703C080913C
:1023F000B0008F7D8093B000892F90E0880F991FE7
:1024000084589F4FFC01A591B4918C9120E030E05D
:10241000842311F021E030E0C9010895DC015C96CD
:102420008C915C97FD01E80FF11DE35AFF4F20816D
:102430005C968C915C9790E001968F7390705C969F
:102440008C935C975696ED91FC915797208350960C
:10245000ED91FC9151978081806480835B969C9183
:102460005B975C968C915C97981739F45296ED9136
:10247000FC91539780818F7D80830895DF92EF9246
:10248000FF920F931F93CF93DF93EC017A018B019F
:10249000D22EE889F98982E08083403081EE5807A6
:1024A00080E0680780E07807A1F060E079E08DE3E4
:1024B00090E0A80197010E94A617215030404040AB
:1024C0005040569547953795279580E1203038073D
:1024D00098F0E889F989108260E874E88EE190E06C
:1024E000A80197010E94A61721503040404050405B
:1024F0005695479537952795EC85FD853083EE8574
:10250000FF852083188EEC89FD89D082EA89FB89BA
:10251000808180618083EA89FB89808188608083F3
:10252000EA89FB89808180688083EA89FB898081D0
:102530008F7D8083DF91CF911F910F91FF90EF905E
:10254000DF900895FC01818D228D90E0805C9F4F8B
:10255000821B910960E470E00E9493170895FC01CA
:10256000918D828D981719F42FEF3FEF06C0828D61
:10257000E80FF11D858D282F30E0C9010895DC0199
:1025800059969C9159975A968C915A97981719F485
:102590002FEF3FEF10C05A968C915A97FD01E80F2C
:1025A000F11D958D5A968C915A978F5F8F735A961D
:1025B0008C93292F30E0C9010895CF93DF93EC016C
:1025C000888D882361F419C08C9185FF0AC0E88941
:1025D000F989808185FF05C0CE010E940E12AA896B
:1025E000BB898C9185FD05C0E889F989808186FDCC
:1025F00004C00FB607FEE8CFF4CFDF91CF91089566
:102600000F931F93CF93DF93EC01062F9B8D8C8D3F
:10261000981791F5E889F989808185FF2DC0EE89A9
:10262000FF896083E889F9898081806480831DC087
:102630000FB607FC08C0E889F989808185FF03C0CF
:10264000CE010E940E128C8D181791F38B8DFE0116
:10265000E80FF11DE35AFF4F00831B8FEA89FB89C6
:1026600080818062808381E0888F81E090E0DF91CB
:10267000CF911F910F9108951B8D1F5F1F73E3CFA3
:1026800088EC93E1892B51F080E090E0892B31F0C8
:102690000E94C813882311F00E94000008951F9221
:1026A0000F920FB60F9211242F938F939F93EF9356
:1026B000FF93E0910005F0910105808182FD16C035
:1026C000E0910605F09107052081909109059F5F33
:1026D0009F7380910A05981771F0E0910905F0E069
:1026E000E051FB4F258F9093090505C0E091060549
:1026F000F0910705E081FF91EF919F918F912F91CC
:102700000F900FBE0F901F9018951092F304109227
:10271000F20488EE93E0A0E0B0E08093F40490939C
:10272000F504A093F604B093F70489E493E0909342
:10273000F1048093F00485EC90E09093FD04809385
:10274000FC0484EC90E09093FF048093FE0480EC02
:1027500090E0909301058093000581EC90E09093C8
:1027600003058093020582EC90E090930505809329
:10277000040586EC90E0909307058093060510927F
:10278000090510920A0510920B0510920C05089588
:1027900080EF94E00E94A21220E0892B09F021E052
:1027A000822F08951F920F920FB60F9211242F932C
:1027B0003F934F935F936F937F938F939F93AF93C9
:1027C000BF93EF93FF9380EF94E00E940E12FF916E
:1027D000EF91BF91AF919F918F917F916F915F9199
:1027E0004F913F912F910F900FBE0F901F90189512
:1027F000CF93DF930E9403100E940D07C0E4D3E142
:102800000E94C0042097E1F30E944013F9CF08957D
:10281000CF92DF92EF92FF920F931F93CF93DF93AC
:102820007C016B018A01C0E0D0E00FC0D6016D9140
:102830006D01D701ED91FC910190F081E02DC70170
:102840000995C80FD91F015010400115110571F7E6
:10285000CE01DF91CF911F910F91FF90EF90DF900C
:10286000CF900895EF92FF920F931F938C01DC019C
:10287000ED91FC910190F081E02D6DE009957C01D6
:10288000D801ED91FC910190F081E02DC8016AE042
:1028900009959C012E0D3F1DC9011F910F91FF90BD
:1028A000EF900895CF93DF93EC016115710519F452
:1028B00020E030E00FC0DB010D900020E9F7119718
:1028C000A61BB70BE881F9810280F381E02DAD01F1
:1028D00009959C01C901DF91CF9108954F925F92B4
:1028E0007F928F929F92AF92BF92CF92DF92EF92A0
:1028F000FF920F931F93DF93CF93CDB7DEB7A197CE
:102900000FB6F894DEBF0FBECDBF2C01742ECB01E5
:10291000223008F42AE019A231E2C32ED12CCC0EC9
:10292000DD1E822E9924AA24BB24672D752FA501B4
:1029300094010E94A61779018A01C801B701A50177
:1029400094010E947417472D461B0894C108D108B2
:102950004A3014F4405D01C0495CF6014083E11443
:10296000F1040105110521F07E2C5F2DC801DDCF9A
:10297000C201B6010E945214A1960FB6F894DEBFB0
:102980000FBECDBFCF91DF911F910F91FF90EF90C0
:10299000DF90CF90BF90AF909F908F907F905F908F
:1029A0004F900895CF92DF92EF92FF920F931F9373
:1029B000CF93DF93EC016A017B012115310541F4CE
:1029C000E881F9810190F081E02D642F09951FC005
:1029D0002A303105D1F477FF17C0E881F9810190E1
:1029E000F081E02D6DE209958C0144275527BA014D
:1029F0004C195D096E097F09CE012AE00E946E1410
:102A00009801280F391F04C02AE00E946E149C010F
:102A1000C901DF91CF911F910F91FF90EF90DF904F
:102A2000CF900895EF92FF920F931F937B019A012D
:102A30000027F7FC0095102FB801A7010E94D214BF
:102A40001F910F91FF90EF9008950E9452140895E6
:102A5000EF92FF920F931F937C010E9452148C01FE
:102A6000C7010E943214080F191FC8011F910F914E
:102A7000FF90EF9008952F923F924F925F926F9246
:102A80007F928F929F92AF92BF92CF92DF92EF92FE
:102A9000FF920F931F93DF93CF93CDB7DEB73B0128
:102AA0004C0119012A016D897E898F89988D6A19D7
:102AB0007B098C099D09621A730A840A950AA4018C
:102AC00093010E947417E218F30804091509A8017C
:102AD00097010E94C8172A0D3B1D4C1D5D1DB901B1
:102AE000CA01CF91DF911F910F91FF90EF90DF907E
:102AF000CF90BF90AF909F908F907F906F905F909E
:102B00004F903F902F90089508955058BB27AA27C3
:102B10000ED04DC13ED130F043D120F031F49F3F73
:102B200011F41EF433C10EF4E095E7FB29C1E92F3F
:102B30004FD180F3BA17620773078407950718F01F
:102B400071F49EF567C10EF4E0950B2EBA2FA02DFF
:102B50000B01B90190010C01CA01A0011124FF274A
:102B6000591B99F0593F50F4503E68F11A16F04045
:102B7000A22F232F342F4427585FF3CF4695379544
:102B80002795A795F0405395C9F77EF41F16BA0B09
:102B9000620B730B840BBAF09150A1F0FF0FBB1FB7
:102BA000661F771F881FC2F70EC0BA0F621F731F00
:102BB000841F48F4879577956795B795F7959E3F5D
:102BC00008F0B3CF9395880F08F09927EE0F9795EB
:102BD000879508950CD0EBC0E3D040F0DAD030F008
:102BE00021F45F3F19F0CCC0511115C1CFC0F0D016
:102BF00098F39923C9F35523B1F3951B550BBB27C4
:102C0000AA2762177307840738F09F5F5F4F220F70
:102C1000331F441FAA1FA9F333D00E2E3AF0E0E869
:102C200030D091505040E695001CCAF729D0FE2FB5
:102C300027D0660F771F881FBB1F26173707480747
:102C4000AB07B0E809F0BB0B802DBF01FF279358FD
:102C50005F4F2AF09E3F510568F092C0DCC05F3F95
:102C6000ECF3983EDCF3869577956795B795F795E5
:102C70009F5FC9F7880F911D9695879597F90895DD
:102C8000E1E0660F771F881FBB1F62177307840779
:102C9000BA0720F0621B730B840BBA0BEE1F88F788
:102CA000E095089504D06894B111B5C0089598D006
:102CB00088F09F5790F0B92F9927B751A0F0D1F025
:102CC000660F771F881F991F1AF0BA95C9F712C0AF
:102CD000B13081F09FD0B1E008959CC0672F782F6C
:102CE0008827B85F39F0B93FCCF38695779567951B
:102CF000B395D9F73EF490958095709561957F4F87
:102D00008F4F9F4F0895E89409C097FB3EF490952C
:102D10008095709561957F4F8F4F9F4F9923A9F0B4
:102D2000F92F96E9BB279395F69587957795679543
:102D3000B795F111F8CFFAF4BB0F11F460FF1BC087
:102D40006F5F7F4F8F4F9F4F16C0882311F096E91A
:102D500011C0772321F09EE8872F762F05C06623C8
:102D600071F096E8862F70E060E02AF09A95660F81
:102D7000771F881FDAF7880F9695879597F908953A
:102D800097F99F6780E870E060E008959FEF80EC1E
:102D9000089500240A9416161706180609060895C1
:102DA00000240A9412161306140605060895092E27
:102DB0000394000C11F4882352F0BB0F40F4BF2B96
:102DC00011F460FF04C06F5F7F4F8F4F9F4F0895D6
:102DD00057FD9058440F551F59F05F3F71F04795CC
:102DE000880F97FB991F61F09F3F79F087950895B1
:102DF000121613061406551FF2CF4695F1DF08C0D0
:102E0000161617061806991FF1CF869571056105EC
:102E100008940895E894BB2766277727CB0197F994
:102E200008950BD0C4CFB5DF28F0BADF18F0952392
:102E300009F0A6CFABCF1124EECFCADFA0F3959F48
:102E4000D1F3950F50E0551F629FF001729FBB2791
:102E5000F00DB11D639FAA27F00DB11DAA1F649F3D
:102E60006627B00DA11D661F829F2227B00DA11DF0
:102E7000621F739FB00DA11D621F839FA00D611D76
:102E8000221F749F3327A00D611D231F849F600D97
:102E9000211D822F762F6A2F11249F5750408AF0D0
:102EA000E1F088234AF0EE0FFF1FBB1F661F771F5C
:102EB000881F91505040A9F79E3F510570F060CF98
:102EC000AACF5F3FECF3983EDCF386957795679544
:102ED000B795F795E7959F5FC1F7FE2B880F911D7A
:102EE0009695879597F90895629FD001739FF00199
:102EF000829FE00DF11D649FE00DF11D929FF00D8A
:102F0000839FF00D749FF00D659FF00D9927729FC0
:102F1000B00DE11DF91F639FB00DE11DF91FBD014B
:102F2000CF011124089597FB092E07260AD077FDBB
:102F300004D049D006D000201AF4709561957F4FD7
:102F40000895F6F7909581959F4F0895A1E21A2E66
:102F5000AA1BBB1BFD010DC0AA1FBB1FEE1FFF1F3D
:102F6000A217B307E407F50720F0A21BB30BE40B8D
:102F7000F50B661F771F881F991F1A9469F76095D4
:102F80007095809590959B01AC01BD01CF0108958E
:102F900097FB092E05260ED057FD04D0D7DF0AD0A7
:102FA000001C38F450954095309521953F4F4F4F78
:102FB0005F4F0895F6F790958095709561957F4FD6
:102FC0008F4F9F4F0895AA1BBB1B51E107C0AA1F3B
:102FD000BB1FA617B70710F0A61BB70B881F991FBA
:102FE0005A95A9F780959095BC01CD010895EE0FF3
:102FF000FF1F0590F491E02D09942F923F924F927C
:103000005F926F927F928F929F92AF92BF92CF9278
:10301000DF92EF92FF920F931F93CF93DF93CDB781
:10302000DEB7CA1BDB0B0FB6F894DEBF0FBECDBFF9
:1030300009942A88398848885F846E847D848C84CA
:103040009B84AA84B984C884DF80EE80FD800C81D3
:103050001B81AA81B981CE0FD11D0FB6F894DEBFB6
:0C3060000FBECDBFED010895F894FFCF26
:10306C005620426F6172647370616E6E756E67008C
:10307C005674656320756E64204153422057495045
:10308C000020202020202020202020202020202054
:10309C0000432057617373657274656D702E004325
:1030AC0020416E736175676B6C6170706500417562
:1030BC007373656E74656D706572617475720020E2
:1030CC0043656C7369757300496E6E656E74656DDE
:1030DC0070657261747572006C647275636B00421A
:1030EC00617220006C74656D70657261747572002C
:1030FC004320002D2D2D2D2D2D2D2D2D2D2D2D2D18
:10310C002D2D2D2D2D2D2D2D2D2D2D2D2D2D2D2DE3
:10311C002D2D2D2D2D2D2D2D2D2D2D2D2D2D2D2DD3
:10312C002D2D2D2D2D2D2D00486F6E6475696E6F14
:10313C00206275696C6420627920537069746669C9
:10314C007265585000486F6E6475696E6F405370AD
:10315C0069746669726558502E646500486F6E64B8
:10316C0075696E6F2056657273696F6E20312E32E1
:10317C00002043204175C39F656E74656D70657248
:10318C006174757200204320496E6E656E74656DB6
:10319C0070657261747572002043204BC3BC686CFF
:1031AC0077617373657274656D7065726174757235
:1031BC0000204320416E73646175676C756674748E
:1031CC00656D7065726174757200204320C3966CD6
:1031DC0074656D7065726174757200204261722045
:1031EC00C3966C647275636B0020536368616C7476
:1031FC00736175676272C3BC636B6500205654457E
:10320C0043003B20002048656C6C69676B656974F2
:10321C000020566F6C7400232323232323232323A2
:10322C00232323232323232323232300232020208E
:10323C003C3C486F6E6475696E6F3E3E20202023C7
:10324C00002320202020202056657273696F6E2089
:10325C00312E332023000E000F00100011000D0042
:10326C000C0002000B000100010001000100000035
:10327C00003B090A09C308CC08E108F20800000069
:10328C0000640D0814770D1D0D1E0D071400401061
:10329C00500040145400000000640D0814A30EF1FB
:1032AC000D680E480E0000000000130814A212BF97
:0632BC0012AF12DD12004A
:00000001FF
